{
  "contractName": "Faucet",
  "abi": [
    {
      "inputs": [
        {
          "internalType": "address",
          "name": "admin",
          "type": "address"
        },
        {
          "internalType": "address",
          "name": "tokenFaucet",
          "type": "address"
        }
      ],
      "stateMutability": "nonpayable",
      "type": "constructor"
    },
    {
      "anonymous": false,
      "inputs": [
        {
          "indexed": true,
          "internalType": "bytes32",
          "name": "role",
          "type": "bytes32"
        },
        {
          "indexed": true,
          "internalType": "bytes32",
          "name": "previousAdminRole",
          "type": "bytes32"
        },
        {
          "indexed": true,
          "internalType": "bytes32",
          "name": "newAdminRole",
          "type": "bytes32"
        }
      ],
      "name": "RoleAdminChanged",
      "type": "event"
    },
    {
      "anonymous": false,
      "inputs": [
        {
          "indexed": true,
          "internalType": "bytes32",
          "name": "role",
          "type": "bytes32"
        },
        {
          "indexed": true,
          "internalType": "address",
          "name": "account",
          "type": "address"
        },
        {
          "indexed": true,
          "internalType": "address",
          "name": "sender",
          "type": "address"
        }
      ],
      "name": "RoleGranted",
      "type": "event"
    },
    {
      "anonymous": false,
      "inputs": [
        {
          "indexed": true,
          "internalType": "bytes32",
          "name": "role",
          "type": "bytes32"
        },
        {
          "indexed": true,
          "internalType": "address",
          "name": "account",
          "type": "address"
        },
        {
          "indexed": true,
          "internalType": "address",
          "name": "sender",
          "type": "address"
        }
      ],
      "name": "RoleRevoked",
      "type": "event"
    },
    {
      "stateMutability": "payable",
      "type": "fallback"
    },
    {
      "inputs": [],
      "name": "DEFAULT_ADMIN_ROLE",
      "outputs": [
        {
          "internalType": "bytes32",
          "name": "",
          "type": "bytes32"
        }
      ],
      "stateMutability": "view",
      "type": "function"
    },
    {
      "inputs": [
        {
          "internalType": "bytes32",
          "name": "role",
          "type": "bytes32"
        }
      ],
      "name": "getRoleAdmin",
      "outputs": [
        {
          "internalType": "bytes32",
          "name": "",
          "type": "bytes32"
        }
      ],
      "stateMutability": "view",
      "type": "function"
    },
    {
      "inputs": [
        {
          "internalType": "bytes32",
          "name": "role",
          "type": "bytes32"
        },
        {
          "internalType": "uint256",
          "name": "index",
          "type": "uint256"
        }
      ],
      "name": "getRoleMember",
      "outputs": [
        {
          "internalType": "address",
          "name": "",
          "type": "address"
        }
      ],
      "stateMutability": "view",
      "type": "function"
    },
    {
      "inputs": [
        {
          "internalType": "bytes32",
          "name": "role",
          "type": "bytes32"
        }
      ],
      "name": "getRoleMemberCount",
      "outputs": [
        {
          "internalType": "uint256",
          "name": "",
          "type": "uint256"
        }
      ],
      "stateMutability": "view",
      "type": "function"
    },
    {
      "inputs": [
        {
          "internalType": "bytes32",
          "name": "role",
          "type": "bytes32"
        },
        {
          "internalType": "address",
          "name": "account",
          "type": "address"
        }
      ],
      "name": "grantRole",
      "outputs": [],
      "stateMutability": "nonpayable",
      "type": "function"
    },
    {
      "inputs": [
        {
          "internalType": "bytes32",
          "name": "role",
          "type": "bytes32"
        },
        {
          "internalType": "address",
          "name": "account",
          "type": "address"
        }
      ],
      "name": "hasRole",
      "outputs": [
        {
          "internalType": "bool",
          "name": "",
          "type": "bool"
        }
      ],
      "stateMutability": "view",
      "type": "function"
    },
    {
      "inputs": [
        {
          "internalType": "bytes32",
          "name": "role",
          "type": "bytes32"
        },
        {
          "internalType": "address",
          "name": "account",
          "type": "address"
        }
      ],
      "name": "renounceRole",
      "outputs": [],
      "stateMutability": "nonpayable",
      "type": "function"
    },
    {
      "inputs": [
        {
          "internalType": "bytes32",
          "name": "role",
          "type": "bytes32"
        },
        {
          "internalType": "address",
          "name": "account",
          "type": "address"
        }
      ],
      "name": "revokeRole",
      "outputs": [],
      "stateMutability": "nonpayable",
      "type": "function"
    },
    {
      "inputs": [
        {
          "internalType": "bytes4",
          "name": "interfaceId",
          "type": "bytes4"
        }
      ],
      "name": "supportsInterface",
      "outputs": [
        {
          "internalType": "bool",
          "name": "",
          "type": "bool"
        }
      ],
      "stateMutability": "view",
      "type": "function"
    },
    {
      "stateMutability": "payable",
      "type": "receive"
    },
    {
      "inputs": [
        {
          "internalType": "address",
          "name": "newAdmin",
          "type": "address"
        }
      ],
      "name": "setAdmin",
      "outputs": [],
      "stateMutability": "nonpayable",
      "type": "function"
    },
    {
      "inputs": [
        {
          "internalType": "address",
          "name": "newAdmin",
          "type": "address"
        }
      ],
      "name": "unsetAdmin",
      "outputs": [],
      "stateMutability": "nonpayable",
      "type": "function"
    },
    {
      "inputs": [
        {
          "internalType": "address",
          "name": "token",
          "type": "address"
        }
      ],
      "name": "unsetOwner",
      "outputs": [],
      "stateMutability": "nonpayable",
      "type": "function"
    },
    {
      "inputs": [
        {
          "internalType": "address",
          "name": "token",
          "type": "address"
        },
        {
          "internalType": "uint256",
          "name": "amountForClaimers",
          "type": "uint256"
        },
        {
          "internalType": "uint256",
          "name": "_secs",
          "type": "uint256"
        }
      ],
      "name": "makeMeOwner",
      "outputs": [],
      "stateMutability": "payable",
      "type": "function"
    },
    {
      "inputs": [
        {
          "internalType": "address",
          "name": "token",
          "type": "address"
        }
      ],
      "name": "claim",
      "outputs": [],
      "stateMutability": "nonpayable",
      "type": "function"
    },
    {
      "inputs": [
        {
          "internalType": "address",
          "name": "token",
          "type": "address"
        },
        {
          "internalType": "uint256",
          "name": "_amount",
          "type": "uint256"
        },
        {
          "internalType": "uint256",
          "name": "_secs",
          "type": "uint256"
        }
      ],
      "name": "setUpToken",
      "outputs": [],
      "stateMutability": "nonpayable",
      "type": "function"
    },
    {
      "inputs": [
        {
          "internalType": "address",
          "name": "token",
          "type": "address"
        }
      ],
      "name": "vaciarFaucet",
      "outputs": [],
      "stateMutability": "nonpayable",
      "type": "function"
    },
    {
      "inputs": [],
      "name": "getEther",
      "outputs": [],
      "stateMutability": "nonpayable",
      "type": "function"
    },
    {
      "inputs": [
        {
          "internalType": "address",
          "name": "user",
          "type": "address"
        },
        {
          "internalType": "address",
          "name": "token",
          "type": "address"
        }
      ],
      "name": "getExpiryOf",
      "outputs": [
        {
          "internalType": "uint256",
          "name": "",
          "type": "uint256"
        }
      ],
      "stateMutability": "view",
      "type": "function"
    },
    {
      "inputs": [
        {
          "internalType": "address",
          "name": "token",
          "type": "address"
        }
      ],
      "name": "getOwnerOf",
      "outputs": [
        {
          "internalType": "address",
          "name": "",
          "type": "address"
        }
      ],
      "stateMutability": "view",
      "type": "function"
    },
    {
      "inputs": [
        {
          "internalType": "address",
          "name": "token",
          "type": "address"
        }
      ],
      "name": "getAmountOf",
      "outputs": [
        {
          "internalType": "uint256",
          "name": "",
          "type": "uint256"
        }
      ],
      "stateMutability": "view",
      "type": "function"
    },
    {
      "inputs": [
        {
          "internalType": "address",
          "name": "token",
          "type": "address"
        }
      ],
      "name": "getSecsOf",
      "outputs": [
        {
          "internalType": "uint256",
          "name": "",
          "type": "uint256"
        }
      ],
      "stateMutability": "view",
      "type": "function"
    },
    {
      "inputs": [],
      "name": "getEthBalance",
      "outputs": [
        {
          "internalType": "uint256",
          "name": "",
          "type": "uint256"
        }
      ],
      "stateMutability": "view",
      "type": "function"
    }
  ],
  "bytecode": "0x60806040523480156200001157600080fd5b50604051620018d7380380620018d783398101604081905262000034916200027f565b6200004a600083640100000000620000a0810204565b600160a060020a0390811660009081526003602090815260408083208054600160a060020a0319169590941694909417909255600482528281206102589055600590915220670de0b6b3a76400009055620002b6565b620000ba828264010000000062000bb8620000e782021704565b6000828152600160205260409020620000e2908264010000000062000bc66200010082021704565b505050565b620000fc828264010000000062000129810204565b5050565b60006200012083600160a060020a038416640100000000620001c5810204565b90505b92915050565b6200013e82826401000000006200021d810204565b620000fc57600082815260208181526040808320600160a060020a03851684529091529020805460ff191660011790556200018164010000000062000246810204565b600160a060020a031681600160a060020a0316837f2f8788117e7eff1d82e926ec794901d17c78024a50270940304540a733656f0d60405160405180910390a45050565b6000620001dc83836401000000006200024a810204565b620002145750815460018181018455600084815260208082209093018490558454848252828601909352604090209190915562000123565b50600062000123565b600091825260208281526040808420600160a060020a0393909316845291905290205460ff1690565b3390565b60009081526001919091016020526040902054151590565b8051600160a060020a03811681146200027a57600080fd5b919050565b6000806040838503121562000292578182fd5b6200029d8362000262565b9150620002ad6020840162000262565b90509250929050565b61161180620002c66000396000f3fe60806040526004361061014a576000357c01000000000000000000000000000000000000000000000000000000009004806391d14854116100c2578063ca15c87311610089578063ca15c873146103a9578063d547741f146103c9578063de0ff7c5146103e9578063e8b2400c146103fe578063ee3c364014610434578063f7662f8e1461045457005b806391d14854146102e557806398710fac14610305578063a217fddf1461033b578063a6312ab914610350578063bd4972c31461037057005b8063396c5e5011610111578063396c5e50146102265780634d253b5014610246578063704b6c021461026657806370ed0ada1461028657806379c1e1191461029a5780639010d07c146102ad57005b806301ffc9a7146101535780631e83409a14610188578063248a9ca3146101a85780632f2ff15d146101e657806336568abe1461020657005b3661015157005b005b34801561015f57600080fd5b5061017361016e366004611402565b610474565b60405190151581526020015b60405180910390f35b34801561019457600080fd5b506101516101a3366004611309565b6104b8565b3480156101b457600080fd5b506101d86101c33660046113a7565b60009081526020819052604090206001015490565b60405190815260200161017f565b3480156101f257600080fd5b506101516102013660046113bf565b6105df565b34801561021257600080fd5b506101516102213660046113bf565b610606565b34801561023257600080fd5b506101d8610241366004611323565b610628565b34801561025257600080fd5b50610151610261366004611309565b610698565b34801561027257600080fd5b50610151610281366004611309565b6106d9565b34801561029257600080fd5b5030316101d8565b6101516102a8366004611355565b61070e565b3480156102b957600080fd5b506102cd6102c83660046113e1565b6107c9565b604051600160a060020a03909116815260200161017f565b3480156102f157600080fd5b506101736103003660046113bf565b6107e8565b34801561031157600080fd5b506101d8610320366004611309565b600160a060020a031660009081526004602052604090205490565b34801561034757600080fd5b506101d8600081565b34801561035c57600080fd5b5061015161036b366004611309565b610811565b34801561037c57600080fd5b506102cd61038b366004611309565b600160a060020a039081166000908152600360205260409020541690565b3480156103b557600080fd5b506101d86103c43660046113a7565b6108c3565b3480156103d557600080fd5b506101516103e43660046113bf565b6108da565b3480156103f557600080fd5b506101516108e4565b34801561040a57600080fd5b506101d8610419366004611309565b600160a060020a031660009081526005602052604090205490565b34801561044057600080fd5b5061015161044f366004611309565b61097b565b34801561046057600080fd5b5061015161046f366004611355565b610b1e565b6000600160e060020a031982167f5a05180f0000000000000000000000000000000000000000000000000000000014806104b257506104b282610bdb565b92915050565b600160a060020a038116600090815260026020908152604080832033845290915290205442116104e757600080fd5b600160a060020a03811660008181526005602090815260408083205481517fa9059cbb0000000000000000000000000000000000000000000000000000000081523360048201526024810191909152905163a9059cbb93604480840194938390030190829087803b15801561055b57600080fd5b505af115801561056f573d6000803e3d6000fd5b505050506040513d601f19601f820116820180604052508101906105939190611387565b50600160a060020a0381166000908152600460205260409020546105b7904261152d565b600160a060020a03919091166000908152600260209081526040808320338452909152902055565b6105e98282610c42565b60008281526001602052604090206106019082610bc6565b505050565b6106108282610c68565b60008281526001602052604090206106019082610cf3565b600160a060020a0380821660009081526002602090815260408083209386168352929052908120544290811061065f576000610690565b600160a060020a03808416600090815260026020908152604080832093881683529290522054610690908290611564565b949350505050565b6106a36000336107e8565b6106cb5760405160e560020a62461bcd0281526004016106c2906114f6565b60405180910390fd5b6106d66000826108da565b50565b6106e46000336107e8565b6107035760405160e560020a62461bcd0281526004016106c2906114f6565b6106d6600082610d08565b600160a060020a038084166000908152600360205260409020548491161561077b5760405160e560020a62461bcd02815260206004820152601060248201527f6e6f4f776e65722066756e6374696f6e0000000000000000000000000000000060448201526064016106c2565b50600160a060020a03929092166000908152600360209081526040808320805473ffffffffffffffffffffffffffffffffffffffff1916331790556005825280832093909355600490522055565b60008281526001602052604081206107e19083610d12565b9392505050565b600091825260208281526040808420600160a060020a0393909316845291905290205460ff1690565b61081c6000336107e8565b806108405750600160a060020a038181166000908152600360205260409020541633145b61088f5760405160e560020a62461bcd02815260206004820152601360248201527f4e6f742061646d696e206e6f72206f776e65720000000000000000000000000060448201526064016106c2565b600160a060020a03166000908152600360205260409020805473ffffffffffffffffffffffffffffffffffffffff19169055565b60008181526001602052604081206104b290610d1e565b6106108282610d28565b6108ef6000336107e8565b61090e5760405160e560020a62461bcd0281526004016106c2906114f6565b6040513390303180156108fc02916000818181858888f193505050506109795760405160e560020a62461bcd02815260206004820152601460248201527f4661696c656420746f2073656e6420657468657200000000000000000000000060448201526064016106c2565b565b600160a060020a0380821660009081526003602052604090205482911633146109e95760405160e560020a62461bcd02815260206004820152601260248201527f6f6e6c794f776e65722066756e6374696f6e000000000000000000000000000060448201526064016106c2565b600160a060020a03821663a9059cbb336040517f70a08231000000000000000000000000000000000000000000000000000000008152306004820152600160a060020a038616906370a082319060240160206040518083038186803b158015610a5157600080fd5b505afa158015610a65573d6000803e3d6000fd5b505050506040513d601f19601f82011682018060405250810190610a89919061142a565b6040517c010000000000000000000000000000000000000000000000000000000063ffffffff8516028152600160a060020a0390921660048301526024820152604401602060405180830381600087803b158015610ae657600080fd5b505af1158015610afa573d6000803e3d6000fd5b505050506040513d601f19601f820116820180604052508101906106019190611387565b600160a060020a038084166000908152600360205260409020548491163314610b8c5760405160e560020a62461bcd02815260206004820152601260248201527f6f6e6c794f776e65722066756e6374696f6e000000000000000000000000000060448201526064016106c2565b50600160a060020a03909216600090815260046020908152604080832094909455600590529190912055565b610bc28282610d4e565b5050565b60006107e183600160a060020a038416610dd2565b6000600160e060020a031982167f7965db0b0000000000000000000000000000000000000000000000000000000014806104b257507f01ffc9a700000000000000000000000000000000000000000000000000000000600160e060020a03198316146104b2565b600082815260208190526040902060010154610c5e8133610e21565b6106018383610d4e565b600160a060020a0381163314610ce95760405160e560020a62461bcd02815260206004820152602f60248201527f416363657373436f6e74726f6c3a2063616e206f6e6c792072656e6f756e636560448201527f20726f6c657320666f722073656c66000000000000000000000000000000000060648201526084016106c2565b610bc28282610e88565b60006107e183600160a060020a038416610eed565b6105e98282610bb8565b60006107e18383611013565b60006104b2825490565b600082815260208190526040902060010154610d448133610e21565b6106018383610e88565b610d5882826107e8565b610bc257600082815260208181526040808320600160a060020a03851684529091529020805460ff19166001179055610d8e3390565b600160a060020a031681600160a060020a0316837f2f8788117e7eff1d82e926ec794901d17c78024a50270940304540a733656f0d60405160405180910390a45050565b6000818152600183016020526040812054610e19575081546001818101845560008481526020808220909301849055845484825282860190935260409020919091556104b2565b5060006104b2565b610e2b82826107e8565b610bc257610e4381600160a060020a0316601461104e565b610e4e83602061104e565b604051602001610e5f929190611442565b60408051601f198184030181529082905260e560020a62461bcd0282526106c2916004016114c3565b610e9282826107e8565b15610bc257600082815260208181526040808320600160a060020a0385168085529252808320805460ff1916905551339285917ff6391f5c32d9c69d2a47ea670b442974b53935d1edc7fd64eb21e047a839171b9190a45050565b60008181526001830160205260408120548015611009576000610f11600183611564565b8554909150600090610f2590600190611564565b9050818114610fac576000866000018281548110610f565760e060020a634e487b7102600052603260045260246000fd5b9060005260206000200154905080876000018481548110610f8a5760e060020a634e487b7102600052603260045260246000fd5b6000918252602080832090910192909255918252600188019052604090208390555b8554869080610fce5760e060020a634e487b7102600052603160045260246000fd5b6001900381819060005260206000200160009055905585600101600086815260200190815260200160002060009055600193505050506104b2565b60009150506104b2565b600082600001828154811061103b5760e060020a634e487b7102600052603260045260246000fd5b9060005260206000200154905092915050565b6060600061105d836002611545565b61106890600261152d565b67ffffffffffffffff8111156110915760e060020a634e487b7102600052604160045260246000fd5b6040519080825280601f01601f1916602001820160405280156110bb576020820181803683370190505b5090507f3000000000000000000000000000000000000000000000000000000000000000816000815181106111035760e060020a634e487b7102600052603260045260246000fd5b60200101907effffffffffffffffffffffffffffffffffffffffffffffffffffffffffffff1916908160001a9053507f7800000000000000000000000000000000000000000000000000000000000000816001815181106111775760e060020a634e487b7102600052603260045260246000fd5b60200101907effffffffffffffffffffffffffffffffffffffffffffffffffffffffffffff1916908160001a90535060006111b3846002611545565b6111be90600161152d565b90505b600181111561129b577f303132333435363738396162636465660000000000000000000000000000000085600f16601081106112105760e060020a634e487b7102600052603260045260246000fd5b1a7f0100000000000000000000000000000000000000000000000000000000000000028282815181106112565760e060020a634e487b7102600052603260045260246000fd5b60200101907effffffffffffffffffffffffffffffffffffffffffffffffffffffffffffff1916908160001a905350601090940493611294816115ab565b90506111c1565b5083156107e15760405160e560020a62461bcd02815260206004820181905260248201527f537472696e67733a20686578206c656e67746820696e73756666696369656e7460448201526064016106c2565b8035600160a060020a038116811461130457600080fd5b919050565b60006020828403121561131a578081fd5b6107e1826112ed565b60008060408385031215611335578081fd5b61133e836112ed565b915061134c602084016112ed565b90509250929050565b600080600060608486031215611369578081fd5b611372846112ed565b95602085013595506040909401359392505050565b600060208284031215611398578081fd5b815180151581146107e1578182fd5b6000602082840312156113b8578081fd5b5035919050565b600080604083850312156113d1578182fd5b8235915061134c602084016112ed565b600080604083850312156113f3578182fd5b50508035926020909101359150565b600060208284031215611413578081fd5b8135600160e060020a0319811681146107e1578182fd5b60006020828403121561143b578081fd5b5051919050565b7f416363657373436f6e74726f6c3a206163636f756e742000000000000000000081526000835161147a81601785016020880161157b565b7f206973206d697373696e6720726f6c652000000000000000000000000000000060179184019182015283516114b781602884016020880161157b565b01602801949350505050565b60208152600082518060208401526114e281604085016020870161157b565b601f01601f19169190910160400192915050565b60208082526012908201527f6f6e6c7941646d696e2066756e6374696f6e0000000000000000000000000000604082015260600190565b60008219821115611540576115406115c2565b500190565b600081600019048311821515161561155f5761155f6115c2565b500290565b600082821015611576576115766115c2565b500390565b60005b8381101561159657818101518382015260200161157e565b838111156115a5576000848401525b50505050565b6000816115ba576115ba6115c2565b506000190190565b60e060020a634e487b7102600052601160045260246000fdfea2646970667358221220aae4a8c2379c10525c1ecfb3423785b7f7a9519a3c503483bd87d85e563f42a164736f6c63430008040033",
  "immutableReferences": {},
  "source": "// SPDX-License-Identifier: MIT\r\npragma solidity >=0.4.22 <0.9.0;\r\n\r\nimport \"@openzeppelin/contracts/token/ERC20/IERC20.sol\";\r\nimport \"@openzeppelin/contracts/access/AccessControlEnumerable.sol\";\r\n\r\ncontract Faucet is AccessControlEnumerable{\r\n  \r\n  mapping(address=>mapping(address=>uint)) expiryOf;\r\n  mapping(address=>address) owner;\r\n  mapping(address=>uint) secs;\r\n  mapping(address=>uint) amounts;\r\n\r\n  constructor(address admin, address tokenFaucet) {\r\n    _setupRole(DEFAULT_ADMIN_ROLE, admin);\r\n    owner[tokenFaucet] = admin;\r\n    secs[tokenFaucet] = 600;\r\n    amounts[tokenFaucet] = 1 ether; \r\n  }\r\n\r\n  modifier onlyAdmin(){\r\n    require(hasRole(DEFAULT_ADMIN_ROLE, _msgSender()), \"onlyAdmin function\");\r\n    _;\r\n  }\r\n  modifier onlyOwner(address token){\r\n    require(owner[token] == _msgSender(), \"onlyOwner function\");\r\n    _;\r\n  }\r\n  modifier noOwner(address token){\r\n    require(owner[token] == address(0), \"noOwner function\");\r\n    _;\r\n  }\r\n  \r\n  function setAdmin(address newAdmin) external onlyAdmin{\r\n    _setupRole(DEFAULT_ADMIN_ROLE, newAdmin);    //me da out of gas\r\n  }\r\n  function unsetAdmin(address newAdmin) external onlyAdmin{\r\n    revokeRole(DEFAULT_ADMIN_ROLE, newAdmin);\r\n  }\r\n  function unsetOwner(address token) external {\r\n    require(hasRole(DEFAULT_ADMIN_ROLE, _msgSender()) || _msgSender() == owner[token], \"Not admin nor owner\");\r\n    owner[token] = address(0);\r\n  }\r\n\r\n\r\n  function makeMeOwner(address token, uint amountForClaimers, uint _secs) external payable noOwner(token){\r\n    owner[token] = _msgSender();\r\n    amounts[token] = amountForClaimers;\r\n    secs[token] = _secs;\r\n  }\r\n\r\n  function claim(address token) external{\r\n    require(expiryOf[token][_msgSender()] < block.timestamp);\r\n\r\n    IERC20(token).transfer(_msgSender(), amounts[token]);\r\n\r\n    expiryOf[token][_msgSender()] = block.timestamp + secs[token];\r\n  }\r\n\r\n  function setUpToken(address token, uint _amount, uint _secs) external onlyOwner(token){\r\n    secs[token] = _secs;\r\n    amounts[token] = _amount;\r\n  }\r\n\r\n  function vaciarFaucet(address token) external onlyOwner(token){\r\n    //Require\r\n    IERC20(token).transfer(_msgSender(), IERC20(token).balanceOf(address(this)));\r\n  }\r\n\r\n  receive() external payable{}\r\n  fallback() external payable{}\r\n  function getEther() external onlyAdmin{\r\n    require(payable(_msgSender()).send(address(this).balance),  \"Failed to send ether\");\r\n  }\r\n  \r\n\r\n  function getExpiryOf(address user, address token) external view returns(uint){\r\n    uint nowTime = block.timestamp;\r\n    return  expiryOf[token][user] > nowTime ? expiryOf[token][user] - nowTime : 0 ;\r\n  }\r\n\r\n  function getOwnerOf(address token) external view returns(address){\r\n    return owner[token];\r\n  }\r\n  function getAmountOf(address token) external view returns(uint){\r\n    return amounts[token];\r\n  }\r\n  function getSecsOf(address token) external view returns(uint){\r\n    return secs[token];\r\n  }\r\n  function getEthBalance() external view returns(uint){\r\n    return address(this).balance;\r\n  }\r\n}\r\n",
  "sourcePath": "C:\\Escritorio\\Proyects\\FaucetProyect\\src\\contracts\\Faucet.sol",
  "compiler": {
    "name": "solc",
    "version": "0.8.4+commit.c7e474f2.Emscripten.clang"
  },
  "schemaVersion": "3.4.3",
  "updatedAt": "2021-09-30T02:51:24.184Z",
  "devdoc": {
    "kind": "dev",
    "methods": {
      "getRoleAdmin(bytes32)": {
        "details": "Returns the admin role that controls `role`. See {grantRole} and {revokeRole}. To change a role's admin, use {_setRoleAdmin}."
      },
      "getRoleMember(bytes32,uint256)": {
        "details": "Returns one of the accounts that have `role`. `index` must be a value between 0 and {getRoleMemberCount}, non-inclusive. Role bearers are not sorted in any particular way, and their ordering may change at any point. WARNING: When using {getRoleMember} and {getRoleMemberCount}, make sure you perform all queries on the same block. See the following https://forum.openzeppelin.com/t/iterating-over-elements-on-enumerableset-in-openzeppelin-contracts/2296[forum post] for more information."
      },
      "getRoleMemberCount(bytes32)": {
        "details": "Returns the number of accounts that have `role`. Can be used together with {getRoleMember} to enumerate all bearers of a role."
      },
      "grantRole(bytes32,address)": {
        "details": "Overload {grantRole} to track enumerable memberships"
      },
      "hasRole(bytes32,address)": {
        "details": "Returns `true` if `account` has been granted `role`."
      },
      "renounceRole(bytes32,address)": {
        "details": "Overload {renounceRole} to track enumerable memberships"
      },
      "revokeRole(bytes32,address)": {
        "details": "Overload {revokeRole} to track enumerable memberships"
      },
      "supportsInterface(bytes4)": {
        "details": "See {IERC165-supportsInterface}."
      }
    },
    "version": 1
  },
  "userdoc": {
    "kind": "user",
    "methods": {},
    "version": 1
  }
}