{
  "contractName": "PatoCoin",
  "abi": [
    {
      "inputs": [
        {
          "internalType": "address",
          "name": "masterChef",
          "type": "address"
        }
      ],
      "stateMutability": "nonpayable",
      "type": "constructor"
    },
    {
      "anonymous": false,
      "inputs": [
        {
          "indexed": true,
          "internalType": "address",
          "name": "owner",
          "type": "address"
        },
        {
          "indexed": true,
          "internalType": "address",
          "name": "spender",
          "type": "address"
        },
        {
          "indexed": false,
          "internalType": "uint256",
          "name": "value",
          "type": "uint256"
        }
      ],
      "name": "Approval",
      "type": "event"
    },
    {
      "anonymous": false,
      "inputs": [
        {
          "indexed": false,
          "internalType": "address",
          "name": "account",
          "type": "address"
        }
      ],
      "name": "Paused",
      "type": "event"
    },
    {
      "anonymous": false,
      "inputs": [
        {
          "indexed": true,
          "internalType": "bytes32",
          "name": "role",
          "type": "bytes32"
        },
        {
          "indexed": true,
          "internalType": "bytes32",
          "name": "previousAdminRole",
          "type": "bytes32"
        },
        {
          "indexed": true,
          "internalType": "bytes32",
          "name": "newAdminRole",
          "type": "bytes32"
        }
      ],
      "name": "RoleAdminChanged",
      "type": "event"
    },
    {
      "anonymous": false,
      "inputs": [
        {
          "indexed": true,
          "internalType": "bytes32",
          "name": "role",
          "type": "bytes32"
        },
        {
          "indexed": true,
          "internalType": "address",
          "name": "account",
          "type": "address"
        },
        {
          "indexed": true,
          "internalType": "address",
          "name": "sender",
          "type": "address"
        }
      ],
      "name": "RoleGranted",
      "type": "event"
    },
    {
      "anonymous": false,
      "inputs": [
        {
          "indexed": true,
          "internalType": "bytes32",
          "name": "role",
          "type": "bytes32"
        },
        {
          "indexed": true,
          "internalType": "address",
          "name": "account",
          "type": "address"
        },
        {
          "indexed": true,
          "internalType": "address",
          "name": "sender",
          "type": "address"
        }
      ],
      "name": "RoleRevoked",
      "type": "event"
    },
    {
      "anonymous": false,
      "inputs": [
        {
          "indexed": true,
          "internalType": "address",
          "name": "from",
          "type": "address"
        },
        {
          "indexed": true,
          "internalType": "address",
          "name": "to",
          "type": "address"
        },
        {
          "indexed": false,
          "internalType": "uint256",
          "name": "value",
          "type": "uint256"
        }
      ],
      "name": "Transfer",
      "type": "event"
    },
    {
      "anonymous": false,
      "inputs": [
        {
          "indexed": false,
          "internalType": "address",
          "name": "account",
          "type": "address"
        }
      ],
      "name": "Unpaused",
      "type": "event"
    },
    {
      "inputs": [],
      "name": "DEFAULT_ADMIN_ROLE",
      "outputs": [
        {
          "internalType": "bytes32",
          "name": "",
          "type": "bytes32"
        }
      ],
      "stateMutability": "view",
      "type": "function"
    },
    {
      "inputs": [],
      "name": "MINTER_ROLE",
      "outputs": [
        {
          "internalType": "bytes32",
          "name": "",
          "type": "bytes32"
        }
      ],
      "stateMutability": "view",
      "type": "function"
    },
    {
      "inputs": [],
      "name": "PAUSER_ROLE",
      "outputs": [
        {
          "internalType": "bytes32",
          "name": "",
          "type": "bytes32"
        }
      ],
      "stateMutability": "view",
      "type": "function"
    },
    {
      "inputs": [
        {
          "internalType": "address",
          "name": "owner",
          "type": "address"
        },
        {
          "internalType": "address",
          "name": "spender",
          "type": "address"
        }
      ],
      "name": "allowance",
      "outputs": [
        {
          "internalType": "uint256",
          "name": "",
          "type": "uint256"
        }
      ],
      "stateMutability": "view",
      "type": "function"
    },
    {
      "inputs": [
        {
          "internalType": "address",
          "name": "spender",
          "type": "address"
        },
        {
          "internalType": "uint256",
          "name": "amount",
          "type": "uint256"
        }
      ],
      "name": "approve",
      "outputs": [
        {
          "internalType": "bool",
          "name": "",
          "type": "bool"
        }
      ],
      "stateMutability": "nonpayable",
      "type": "function"
    },
    {
      "inputs": [
        {
          "internalType": "address",
          "name": "account",
          "type": "address"
        }
      ],
      "name": "balanceOf",
      "outputs": [
        {
          "internalType": "uint256",
          "name": "",
          "type": "uint256"
        }
      ],
      "stateMutability": "view",
      "type": "function"
    },
    {
      "inputs": [
        {
          "internalType": "uint256",
          "name": "amount",
          "type": "uint256"
        }
      ],
      "name": "burn",
      "outputs": [],
      "stateMutability": "nonpayable",
      "type": "function"
    },
    {
      "inputs": [
        {
          "internalType": "address",
          "name": "account",
          "type": "address"
        },
        {
          "internalType": "uint256",
          "name": "amount",
          "type": "uint256"
        }
      ],
      "name": "burnFrom",
      "outputs": [],
      "stateMutability": "nonpayable",
      "type": "function"
    },
    {
      "inputs": [],
      "name": "decimals",
      "outputs": [
        {
          "internalType": "uint8",
          "name": "",
          "type": "uint8"
        }
      ],
      "stateMutability": "view",
      "type": "function"
    },
    {
      "inputs": [
        {
          "internalType": "address",
          "name": "spender",
          "type": "address"
        },
        {
          "internalType": "uint256",
          "name": "subtractedValue",
          "type": "uint256"
        }
      ],
      "name": "decreaseAllowance",
      "outputs": [
        {
          "internalType": "bool",
          "name": "",
          "type": "bool"
        }
      ],
      "stateMutability": "nonpayable",
      "type": "function"
    },
    {
      "inputs": [
        {
          "internalType": "bytes32",
          "name": "role",
          "type": "bytes32"
        }
      ],
      "name": "getRoleAdmin",
      "outputs": [
        {
          "internalType": "bytes32",
          "name": "",
          "type": "bytes32"
        }
      ],
      "stateMutability": "view",
      "type": "function"
    },
    {
      "inputs": [
        {
          "internalType": "bytes32",
          "name": "role",
          "type": "bytes32"
        },
        {
          "internalType": "uint256",
          "name": "index",
          "type": "uint256"
        }
      ],
      "name": "getRoleMember",
      "outputs": [
        {
          "internalType": "address",
          "name": "",
          "type": "address"
        }
      ],
      "stateMutability": "view",
      "type": "function"
    },
    {
      "inputs": [
        {
          "internalType": "bytes32",
          "name": "role",
          "type": "bytes32"
        }
      ],
      "name": "getRoleMemberCount",
      "outputs": [
        {
          "internalType": "uint256",
          "name": "",
          "type": "uint256"
        }
      ],
      "stateMutability": "view",
      "type": "function"
    },
    {
      "inputs": [
        {
          "internalType": "bytes32",
          "name": "role",
          "type": "bytes32"
        },
        {
          "internalType": "address",
          "name": "account",
          "type": "address"
        }
      ],
      "name": "grantRole",
      "outputs": [],
      "stateMutability": "nonpayable",
      "type": "function"
    },
    {
      "inputs": [
        {
          "internalType": "bytes32",
          "name": "role",
          "type": "bytes32"
        },
        {
          "internalType": "address",
          "name": "account",
          "type": "address"
        }
      ],
      "name": "hasRole",
      "outputs": [
        {
          "internalType": "bool",
          "name": "",
          "type": "bool"
        }
      ],
      "stateMutability": "view",
      "type": "function"
    },
    {
      "inputs": [
        {
          "internalType": "address",
          "name": "spender",
          "type": "address"
        },
        {
          "internalType": "uint256",
          "name": "addedValue",
          "type": "uint256"
        }
      ],
      "name": "increaseAllowance",
      "outputs": [
        {
          "internalType": "bool",
          "name": "",
          "type": "bool"
        }
      ],
      "stateMutability": "nonpayable",
      "type": "function"
    },
    {
      "inputs": [],
      "name": "maxSupply",
      "outputs": [
        {
          "internalType": "uint256",
          "name": "",
          "type": "uint256"
        }
      ],
      "stateMutability": "view",
      "type": "function"
    },
    {
      "inputs": [],
      "name": "name",
      "outputs": [
        {
          "internalType": "string",
          "name": "",
          "type": "string"
        }
      ],
      "stateMutability": "view",
      "type": "function"
    },
    {
      "inputs": [],
      "name": "owner",
      "outputs": [
        {
          "internalType": "address",
          "name": "",
          "type": "address"
        }
      ],
      "stateMutability": "view",
      "type": "function"
    },
    {
      "inputs": [],
      "name": "paused",
      "outputs": [
        {
          "internalType": "bool",
          "name": "",
          "type": "bool"
        }
      ],
      "stateMutability": "view",
      "type": "function"
    },
    {
      "inputs": [
        {
          "internalType": "bytes32",
          "name": "role",
          "type": "bytes32"
        },
        {
          "internalType": "address",
          "name": "account",
          "type": "address"
        }
      ],
      "name": "renounceRole",
      "outputs": [],
      "stateMutability": "nonpayable",
      "type": "function"
    },
    {
      "inputs": [
        {
          "internalType": "bytes32",
          "name": "role",
          "type": "bytes32"
        },
        {
          "internalType": "address",
          "name": "account",
          "type": "address"
        }
      ],
      "name": "revokeRole",
      "outputs": [],
      "stateMutability": "nonpayable",
      "type": "function"
    },
    {
      "inputs": [],
      "name": "supply",
      "outputs": [
        {
          "internalType": "uint256",
          "name": "",
          "type": "uint256"
        }
      ],
      "stateMutability": "view",
      "type": "function"
    },
    {
      "inputs": [
        {
          "internalType": "bytes4",
          "name": "interfaceId",
          "type": "bytes4"
        }
      ],
      "name": "supportsInterface",
      "outputs": [
        {
          "internalType": "bool",
          "name": "",
          "type": "bool"
        }
      ],
      "stateMutability": "view",
      "type": "function"
    },
    {
      "inputs": [],
      "name": "symbol",
      "outputs": [
        {
          "internalType": "string",
          "name": "",
          "type": "string"
        }
      ],
      "stateMutability": "view",
      "type": "function"
    },
    {
      "inputs": [],
      "name": "totalSupply",
      "outputs": [
        {
          "internalType": "uint256",
          "name": "",
          "type": "uint256"
        }
      ],
      "stateMutability": "view",
      "type": "function"
    },
    {
      "inputs": [
        {
          "internalType": "address",
          "name": "recipient",
          "type": "address"
        },
        {
          "internalType": "uint256",
          "name": "amount",
          "type": "uint256"
        }
      ],
      "name": "transfer",
      "outputs": [
        {
          "internalType": "bool",
          "name": "",
          "type": "bool"
        }
      ],
      "stateMutability": "nonpayable",
      "type": "function"
    },
    {
      "inputs": [
        {
          "internalType": "address",
          "name": "sender",
          "type": "address"
        },
        {
          "internalType": "address",
          "name": "recipient",
          "type": "address"
        },
        {
          "internalType": "uint256",
          "name": "amount",
          "type": "uint256"
        }
      ],
      "name": "transferFrom",
      "outputs": [
        {
          "internalType": "bool",
          "name": "",
          "type": "bool"
        }
      ],
      "stateMutability": "nonpayable",
      "type": "function"
    },
    {
      "inputs": [
        {
          "internalType": "address",
          "name": "to",
          "type": "address"
        },
        {
          "internalType": "uint256",
          "name": "amount",
          "type": "uint256"
        }
      ],
      "name": "mint",
      "outputs": [],
      "stateMutability": "nonpayable",
      "type": "function"
    },
    {
      "inputs": [],
      "name": "pause",
      "outputs": [],
      "stateMutability": "nonpayable",
      "type": "function"
    },
    {
      "inputs": [],
      "name": "unpause",
      "outputs": [],
      "stateMutability": "nonpayable",
      "type": "function"
    }
  ],
  "bytecode": "0x60806040526a52b7d2dcc80cd2e40000006009556000600a553480156200002557600080fd5b50604051620022c4380380620022c4833981016040819052620000489162000550565b604080518082018252600a81527f5061746f2056657264650000000000000000000000000000000000000000000060208083019182528351808501909452600484527f5041544f00000000000000000000000000000000000000000000000000000000908401528151919291620000c291600391620004aa565b508051620000d8906004906020840190620004aa565b50506005805460ff19169055506a084595161401484a000000620001068282640100000000620001b8810204565b6200012e60006200011f640100000000620002e8810204565b640100000000620002ec810204565b60088054600160a060020a03191633179055620001787f9f2df0fed2c77648de5860a4cc508cd0818c85b8b8a1ab4ceeef8d981c8956a66200011f640100000000620002e8810204565b620001b07f65d7a28e3265b37a6474929f336521b332c1681b933f6cb9f3376673440d862a6200011f640100000000620002e8810204565b505062000614565b600160a060020a0382166200022d576040517f08c379a000000000000000000000000000000000000000000000000000000000815260206004820152601f60248201527f45524332303a206d696e7420746f20746865207a65726f206164647265737300604482015260640160405180910390fd5b62000244600083836401000000006200032e810204565b806002600082825462000258919062000580565b9091555050600160a060020a038216600090815260208190526040812080548392906200028790849062000580565b9091555050604051818152600160a060020a038316906000907fddf252ad1be2c89b69c2b068fc378daa952ba7f163c4a11628f55a4df523b3ef9060200160405180910390a3620002e4600083836401000000006200032e810204565b5050565b3390565b62000306828264010000000062000b3d6200033382021704565b60008281526007602052604090206200032e908264010000000062000b476200034882021704565b505050565b620002e4828264010000000062000371810204565b60006200036883600160a060020a0384166401000000006200040f810204565b90505b92915050565b62000386828264010000000062000467810204565b620002e4576000828152600660209081526040808320600160a060020a03851684529091529020805460ff19166001179055620003cb640100000000620002e8810204565b600160a060020a031681600160a060020a0316837f2f8788117e7eff1d82e926ec794901d17c78024a50270940304540a733656f0d60405160405180910390a45050565b600062000426838364010000000062000492810204565b6200045e575081546001818101845560008481526020808220909301849055845484825282860190935260409020919091556200036b565b5060006200036b565b6000918252600660209081526040808420600160a060020a0393909316845291905290205460ff1690565b60009081526001919091016020526040902054151590565b828054620004b890620005be565b90600052602060002090601f016020900481019282620004dc576000855562000527565b82601f10620004f757805160ff191683800117855562000527565b8280016001018555821562000527579182015b82811115620005275782518255916020019190600101906200050a565b506200053592915062000539565b5090565b5b808211156200053557600081556001016200053a565b60006020828403121562000562578081fd5b8151600160a060020a038116811462000579578182fd5b9392505050565b60008219821115620005b9577f4e487b710000000000000000000000000000000000000000000000000000000081526011600452602481fd5b500190565b600281046001821680620005d357607f821691505b602082108114156200060e577f4e487b7100000000000000000000000000000000000000000000000000000000600052602260045260246000fd5b50919050565b611ca080620006246000396000f3fe608060405234801561001057600080fd5b5060043610610202576000357c01000000000000000000000000000000000000000000000000000000009004806370a082311161012c578063a457c2d7116100bf578063d547741f1161008e578063d547741f14610434578063d5abeb0114610447578063dd62ed3e14610450578063e63ab1e91461048957600080fd5b8063a457c2d7146103d4578063a9059cbb146103e7578063ca15c873146103fa578063d53913931461040d57600080fd5b80639010d07c116100fb5780639010d07c1461039e57806391d14854146103b157806395d89b41146103c4578063a217fddf146103cc57600080fd5b806370a082311461032f57806379cc6790146103585780638456cb591461036b5780638da5cb5b1461037357600080fd5b80632f2ff15d116101a45780633f4ba83a116101735780633f4ba83a146102f657806340c10f19146102fe57806342966c68146103115780635c975abb1461032457600080fd5b80632f2ff15d146102ac578063313ce567146102c157806336568abe146102d057806339509351146102e357600080fd5b8063095ea7b3116101e0578063095ea7b31461025b57806318160ddd1461026e57806323b872dd14610276578063248a9ca31461028957600080fd5b806301ffc9a714610207578063047fc9aa1461022f57806306fdde0314610246575b600080fd5b61021a610215366004611aa6565b6104b0565b60405190151581526020015b60405180910390f35b610238600a5481565b604051908152602001610226565b61024e6104f4565b6040516102269190611b4f565b61021a610269366004611a22565b610586565b600254610238565b61021a6102843660046119e7565b61059c565b610238610297366004611a4b565b60009081526006602052604090206001015490565b6102bf6102ba366004611a63565b610663565b005b60405160128152602001610226565b6102bf6102de366004611a63565b61068a565b61021a6102f1366004611a22565b6106ac565b6102bf6106e8565b6102bf61030c366004611a22565b610791565b6102bf61031f366004611a4b565b6108b1565b60055460ff1661021a565b61023861033d36600461199b565b600160a060020a031660009081526020819052604090205490565b6102bf610366366004611a22565b6108be565b6102bf61095b565b60085461038690600160a060020a031681565b604051600160a060020a039091168152602001610226565b6103866103ac366004611a85565b610a02565b61021a6103bf366004611a63565b610a21565b61024e610a4c565b610238600081565b61021a6103e2366004611a22565b610a5b565b61021a6103f5366004611a22565b610b0f565b610238610408366004611a4b565b610b1c565b6102387f9f2df0fed2c77648de5860a4cc508cd0818c85b8b8a1ab4ceeef8d981c8956a681565b6102bf610442366004611a63565b610b33565b61023860095481565b61023861045e3660046119b5565b600160a060020a03918216600090815260016020908152604080832093909416825291909152205490565b6102387f65d7a28e3265b37a6474929f336521b332c1681b933f6cb9f3376673440d862a81565b6000600160e060020a031982167f5a05180f0000000000000000000000000000000000000000000000000000000014806104ee57506104ee82610b5c565b92915050565b60606003805461050390611c13565b80601f016020809104026020016040519081016040528092919081815260200182805461052f90611c13565b801561057c5780601f106105515761010080835404028352916020019161057c565b820191906000526020600020905b81548152906001019060200180831161055f57829003601f168201915b5050505050905090565b6000610593338484610bc3565b50600192915050565b60006105a9848484610d21565b600160a060020a03841660009081526001602090815260408083203384529091529020548281101561064b5760405160e560020a62461bcd02815260206004820152602860248201527f45524332303a207472616e7366657220616d6f756e742065786365656473206160448201527f6c6c6f77616e636500000000000000000000000000000000000000000000000060648201526084015b60405180910390fd5b6106588533858403610bc3565b506001949350505050565b61066d8282610f43565b60008281526007602052604090206106859082610b47565b505050565b6106948282610f69565b60008281526007602052604090206106859082610ff4565b336000818152600160209081526040808320600160a060020a038716845290915281205490916105939185906106e3908690611b82565b610bc3565b6107127f65d7a28e3265b37a6474929f336521b332c1681b933f6cb9f3376673440d862a33610a21565b6107875760405160e560020a62461bcd02815260206004820152602960248201527f556e50617573653a206d75737420686176652070617573657220726f6c65207460448201527f6f20756e706175736500000000000000000000000000000000000000000000006064820152608401610642565b61078f611009565b565b6107bb7f9f2df0fed2c77648de5860a4cc508cd0818c85b8b8a1ab4ceeef8d981c8956a633610a21565b6108305760405160e560020a62461bcd02815260206004820152602360248201527f4d696e743a206d7573742068617665206d696e74657220726f6c6520746f206d60448201527f696e7400000000000000000000000000000000000000000000000000000000006064820152608401610642565b60095481600a546108419190611b82565b11156108925760405160e560020a62461bcd02815260206004820152601460248201527f4d617820737570706c7920616c63616e7a61646f0000000000000000000000006044820152606401610642565b80600a546108a09190611b82565b600a556108ad82826110a8565b5050565b6108bb338261118a565b50565b60006108ca833361045e565b9050818110156109445760405160e560020a62461bcd028152602060048201526024808201527f45524332303a206275726e20616d6f756e74206578636565647320616c6c6f7760448201527f616e6365000000000000000000000000000000000000000000000000000000006064820152608401610642565b6109518333848403610bc3565b610685838361118a565b6109857f65d7a28e3265b37a6474929f336521b332c1681b933f6cb9f3376673440d862a33610a21565b6109fa5760405160e560020a62461bcd02815260206004820152602560248201527f50617573653a206d75737420686176652070617573657220726f6c6520746f2060448201527f70617573650000000000000000000000000000000000000000000000000000006064820152608401610642565b61078f611315565b6000828152600760205260408120610a1a90836113a0565b9392505050565b6000918252600660209081526040808420600160a060020a0393909316845291905290205460ff1690565b60606004805461050390611c13565b336000908152600160209081526040808320600160a060020a038616845290915281205482811015610af85760405160e560020a62461bcd02815260206004820152602560248201527f45524332303a2064656372656173656420616c6c6f77616e63652062656c6f7760448201527f207a65726f0000000000000000000000000000000000000000000000000000006064820152608401610642565b610b053385858403610bc3565b5060019392505050565b6000610593338484610d21565b60008181526007602052604081206104ee906113ac565b61069482826113b6565b6108ad82826113dc565b6000610a1a83600160a060020a038416611462565b6000600160e060020a031982167f7965db0b0000000000000000000000000000000000000000000000000000000014806104ee57507f01ffc9a700000000000000000000000000000000000000000000000000000000600160e060020a03198316146104ee565b600160a060020a038316610c415760405160e560020a62461bcd028152602060048201526024808201527f45524332303a20617070726f76652066726f6d20746865207a65726f2061646460448201527f72657373000000000000000000000000000000000000000000000000000000006064820152608401610642565b600160a060020a038216610cc05760405160e560020a62461bcd02815260206004820152602260248201527f45524332303a20617070726f766520746f20746865207a65726f20616464726560448201527f73730000000000000000000000000000000000000000000000000000000000006064820152608401610642565b600160a060020a0383811660008181526001602090815260408083209487168084529482529182902085905590518481527f8c5be1e5ebec7d5bd14f71427d1e84f3dd0314c0f7b2291e5b200ac8c7c3b925910160405180910390a3505050565b600160a060020a038316610da05760405160e560020a62461bcd02815260206004820152602560248201527f45524332303a207472616e736665722066726f6d20746865207a65726f20616460448201527f64726573730000000000000000000000000000000000000000000000000000006064820152608401610642565b600160a060020a038216610e1f5760405160e560020a62461bcd02815260206004820152602360248201527f45524332303a207472616e7366657220746f20746865207a65726f206164647260448201527f65737300000000000000000000000000000000000000000000000000000000006064820152608401610642565b600160a060020a03831660009081526020819052604090205481811015610eb15760405160e560020a62461bcd02815260206004820152602660248201527f45524332303a207472616e7366657220616d6f756e742065786365656473206260448201527f616c616e636500000000000000000000000000000000000000000000000000006064820152608401610642565b600160a060020a03808516600090815260208190526040808220858503905591851681529081208054849290610ee8908490611b82565b9250508190555082600160a060020a031684600160a060020a03167fddf252ad1be2c89b69c2b068fc378daa952ba7f163c4a11628f55a4df523b3ef84604051610f3491815260200190565b60405180910390a35b50505050565b600082815260066020526040902060010154610f5f81336114b1565b61068583836113dc565b600160a060020a0381163314610fea5760405160e560020a62461bcd02815260206004820152602f60248201527f416363657373436f6e74726f6c3a2063616e206f6e6c792072656e6f756e636560448201527f20726f6c657320666f722073656c6600000000000000000000000000000000006064820152608401610642565b6108ad8282611518565b6000610a1a83600160a060020a03841661157f565b60055460ff1661105e5760405160e560020a62461bcd02815260206004820152601460248201527f5061757361626c653a206e6f74207061757365640000000000000000000000006044820152606401610642565b6005805460ff191690557f5db9ee0a495bf2e6ff9c91a7834c1ba4fdd244a5e8aa4e537bd38aeae4b073aa335b604051600160a060020a03909116815260200160405180910390a1565b600160a060020a0382166111015760405160e560020a62461bcd02815260206004820152601f60248201527f45524332303a206d696e7420746f20746865207a65726f2061646472657373006044820152606401610642565b80600260008282546111139190611b82565b9091555050600160a060020a03821660009081526020819052604081208054839290611140908490611b82565b9091555050604051818152600160a060020a038316906000907fddf252ad1be2c89b69c2b068fc378daa952ba7f163c4a11628f55a4df523b3ef9060200160405180910390a35050565b600160a060020a0382166112095760405160e560020a62461bcd02815260206004820152602160248201527f45524332303a206275726e2066726f6d20746865207a65726f2061646472657360448201527f73000000000000000000000000000000000000000000000000000000000000006064820152608401610642565b600160a060020a0382166000908152602081905260409020548181101561129b5760405160e560020a62461bcd02815260206004820152602260248201527f45524332303a206275726e20616d6f756e7420657863656564732062616c616e60448201527f63650000000000000000000000000000000000000000000000000000000000006064820152608401610642565b600160a060020a03831660009081526020819052604081208383039055600280548492906112ca908490611bb9565b9091555050604051828152600090600160a060020a038516907fddf252ad1be2c89b69c2b068fc378daa952ba7f163c4a11628f55a4df523b3ef9060200160405180910390a3505050565b60055460ff161561136b5760405160e560020a62461bcd02815260206004820152601060248201527f5061757361626c653a20706175736564000000000000000000000000000000006044820152606401610642565b6005805460ff191660011790557f62e78cea01bee320cd4e420270b5ea74000d11b0c9f74754ebdbfc544b05a25861108b3390565b6000610a1a83836116a5565b60006104ee825490565b6000828152600660205260409020600101546113d281336114b1565b6106858383611518565b6113e68282610a21565b6108ad576000828152600660209081526040808320600160a060020a03851684529091529020805460ff1916600117905561141e3390565b600160a060020a031681600160a060020a0316837f2f8788117e7eff1d82e926ec794901d17c78024a50270940304540a733656f0d60405160405180910390a45050565b60008181526001830160205260408120546114a9575081546001818101845560008481526020808220909301849055845484825282860190935260409020919091556104ee565b5060006104ee565b6114bb8282610a21565b6108ad576114d381600160a060020a031660146116e0565b6114de8360206116e0565b6040516020016114ef929190611ace565b60408051601f198184030181529082905260e560020a62461bcd02825261064291600401611b4f565b6115228282610a21565b156108ad576000828152600660209081526040808320600160a060020a0385168085529252808320805460ff1916905551339285917ff6391f5c32d9c69d2a47ea670b442974b53935d1edc7fd64eb21e047a839171b9190a45050565b6000818152600183016020526040812054801561169b5760006115a3600183611bb9565b85549091506000906115b790600190611bb9565b905081811461163e5760008660000182815481106115e85760e060020a634e487b7102600052603260045260246000fd5b906000526020600020015490508087600001848154811061161c5760e060020a634e487b7102600052603260045260246000fd5b6000918252602080832090910192909255918252600188019052604090208390555b85548690806116605760e060020a634e487b7102600052603160045260246000fd5b6001900381819060005260206000200160009055905585600101600086815260200190815260200160002060009055600193505050506104ee565b60009150506104ee565b60008260000182815481106116cd5760e060020a634e487b7102600052603260045260246000fd5b9060005260206000200154905092915050565b606060006116ef836002611b9a565b6116fa906002611b82565b67ffffffffffffffff8111156117235760e060020a634e487b7102600052604160045260246000fd5b6040519080825280601f01601f19166020018201604052801561174d576020820181803683370190505b5090507f3000000000000000000000000000000000000000000000000000000000000000816000815181106117955760e060020a634e487b7102600052603260045260246000fd5b60200101907effffffffffffffffffffffffffffffffffffffffffffffffffffffffffffff1916908160001a9053507f7800000000000000000000000000000000000000000000000000000000000000816001815181106118095760e060020a634e487b7102600052603260045260246000fd5b60200101907effffffffffffffffffffffffffffffffffffffffffffffffffffffffffffff1916908160001a9053506000611845846002611b9a565b611850906001611b82565b90505b600181111561192d577f303132333435363738396162636465660000000000000000000000000000000085600f16601081106118a25760e060020a634e487b7102600052603260045260246000fd5b1a7f0100000000000000000000000000000000000000000000000000000000000000028282815181106118e85760e060020a634e487b7102600052603260045260246000fd5b60200101907effffffffffffffffffffffffffffffffffffffffffffffffffffffffffffff1916908160001a90535060109094049361192681611bfc565b9050611853565b508315610a1a5760405160e560020a62461bcd02815260206004820181905260248201527f537472696e67733a20686578206c656e67746820696e73756666696369656e746044820152606401610642565b8035600160a060020a038116811461199657600080fd5b919050565b6000602082840312156119ac578081fd5b610a1a8261197f565b600080604083850312156119c7578081fd5b6119d08361197f565b91506119de6020840161197f565b90509250929050565b6000806000606084860312156119fb578081fd5b611a048461197f565b9250611a126020850161197f565b9150604084013590509250925092565b60008060408385031215611a34578182fd5b611a3d8361197f565b946020939093013593505050565b600060208284031215611a5c578081fd5b5035919050565b60008060408385031215611a75578182fd5b823591506119de6020840161197f565b60008060408385031215611a97578182fd5b50508035926020909101359150565b600060208284031215611ab7578081fd5b8135600160e060020a031981168114610a1a578182fd5b7f416363657373436f6e74726f6c3a206163636f756e7420000000000000000000815260008351611b06816017850160208801611bd0565b7f206973206d697373696e6720726f6c65200000000000000000000000000000006017918401918201528351611b43816028840160208801611bd0565b01602801949350505050565b6020815260008251806020840152611b6e816040850160208701611bd0565b601f01601f19169190910160400192915050565b60008219821115611b9557611b95611c51565b500190565b6000816000190483118215151615611bb457611bb4611c51565b500290565b600082821015611bcb57611bcb611c51565b500390565b60005b83811015611beb578181015183820152602001611bd3565b83811115610f3d5750506000910152565b600081611c0b57611c0b611c51565b506000190190565b600281046001821680611c2757607f821691505b60208210811415611c4b5760e060020a634e487b7102600052602260045260246000fd5b50919050565b60e060020a634e487b7102600052601160045260246000fdfea264697066735822122025d3a55bb68b2b6a0262c5ff62fa587959b4dac09391d754c23629ecda20ee6164736f6c63430008040033",
  "immutableReferences": {},
  "source": "// SPDX-License-Identifier: MIT\r\npragma solidity >=0.4.22 <0.9.0;\r\n\r\nimport \"../../node_modules/@openzeppelin/contracts/token/ERC20/ERC20.sol\";\r\nimport \"../../node_modules/@openzeppelin/contracts/token/ERC20/extensions/ERC20Burnable.sol\";\r\nimport \"../../node_modules/@openzeppelin/contracts/token/ERC20/extensions/ERC20Pausable.sol\";\r\nimport \"../../node_modules/@openzeppelin/contracts/access/AccessControlEnumerable.sol\";\r\n//import \"../contracts/TransactionFee.sol\";\r\n\r\ncontract PatoCoin is ERC20, ERC20Burnable, ERC20Pausable, AccessControlEnumerable {\r\n  bytes32 public constant MINTER_ROLE = keccak256(\"MINTER_ROLE\");\r\n  bytes32 public constant PAUSER_ROLE = keccak256(\"PAUSER_ROLE\");\r\n  \r\n  address public owner;\r\n  uint public maxSupply = 100000000 ether;\r\n  uint public supply = 0;\r\n  \r\n\r\n  /**\r\n   * @dev Grants `DEFAULT_ADMIN_ROLE`, `MINTER_ROLE` and `PAUSER_ROLE` to the\r\n   * account that deploys the contract and mint 1million tokens to master chef address\r\n   *\r\n   * See {ERC20-constructor}.\r\n   */\r\n  constructor(address masterChef) ERC20('Pato Verde', 'PATO') {\r\n    uint initial = 10000000 ether;\r\n    _mint(masterChef, initial);\r\n    _setupRole(DEFAULT_ADMIN_ROLE, _msgSender());\r\n    owner = msg.sender;\r\n\r\n    _setupRole(MINTER_ROLE, _msgSender());\r\n    _setupRole(PAUSER_ROLE, _msgSender());\r\n\r\n    \r\n  }\r\n\r\n  /**\r\n   * @dev Creates `amount` new tokens for `to`.\r\n   *\r\n   * See {ERC20-_mint}.\r\n   *\r\n   * Requirements:\r\n   *\r\n   * - the caller must have the `MINTER_ROLE`.\r\n   */\r\n  function mint(address to, uint256 amount) public virtual {\r\n    require(hasRole(MINTER_ROLE, _msgSender()), \"Mint: must have minter role to mint\");\r\n    require((supply + amount) <= maxSupply, \"Max supply alcanzado\");\r\n    supply = supply + amount;\r\n    _mint(to, amount);\r\n  }\r\n\r\n  /**\r\n   * @dev Pauses all token transfers.\r\n   *\r\n   * See {ERC20Pausable} and {Pausable-_pause}.\r\n   *\r\n   * Requirements:\r\n   *\r\n   * - the caller must have the `PAUSER_ROLE`.\r\n   */\r\n  function pause() public virtual {\r\n    require(hasRole(PAUSER_ROLE, _msgSender()), \"Pause: must have pauser role to pause\");\r\n    _pause();\r\n  }\r\n\r\n  /**\r\n   * @dev Unpauses all token transfers.\r\n   *\r\n   * See {ERC20Pausable} and {Pausable-_unpause}.\r\n   *\r\n   * Requirements:\r\n   *\r\n   * - the caller must have the `PAUSER_ROLE`.\r\n   */\r\n  function unpause() public virtual {\r\n    require(hasRole(PAUSER_ROLE, _msgSender()), \"UnPause: must have pauser role to unpause\");\r\n    _unpause();\r\n  }\r\n\r\n  function _beforeTokenTransfer(address from, address to, uint256 amount) internal virtual override(ERC20, ERC20Pausable){ }\r\n\r\n  /*function transfer(address sender, address recipient, uint256 amount) internal virtual override(ERC20){ \r\n       \r\n    super._transfer(sender, recipient, amount);\r\n  }*/\r\n\r\n\r\n\r\n}",
  "sourcePath": "C:\\Escritorio\\Proyects\\FaucetProyect\\src\\contracts\\PatoCoin.sol",
  "compiler": {
    "name": "solc",
    "version": "0.8.4+commit.c7e474f2.Emscripten.clang"
  },
  "schemaVersion": "3.4.3",
  "updatedAt": "2021-09-30T02:51:24.197Z",
  "devdoc": {
    "kind": "dev",
    "methods": {
      "allowance(address,address)": {
        "details": "See {IERC20-allowance}."
      },
      "approve(address,uint256)": {
        "details": "See {IERC20-approve}. Requirements: - `spender` cannot be the zero address."
      },
      "balanceOf(address)": {
        "details": "See {IERC20-balanceOf}."
      },
      "burn(uint256)": {
        "details": "Destroys `amount` tokens from the caller. See {ERC20-_burn}."
      },
      "burnFrom(address,uint256)": {
        "details": "Destroys `amount` tokens from `account`, deducting from the caller's allowance. See {ERC20-_burn} and {ERC20-allowance}. Requirements: - the caller must have allowance for ``accounts``'s tokens of at least `amount`."
      },
      "constructor": {
        "details": "Grants `DEFAULT_ADMIN_ROLE`, `MINTER_ROLE` and `PAUSER_ROLE` to the account that deploys the contract and mint 1million tokens to master chef address See {ERC20-constructor}."
      },
      "decimals()": {
        "details": "Returns the number of decimals used to get its user representation. For example, if `decimals` equals `2`, a balance of `505` tokens should be displayed to a user as `5.05` (`505 / 10 ** 2`). Tokens usually opt for a value of 18, imitating the relationship between Ether and Wei. This is the value {ERC20} uses, unless this function is overridden; NOTE: This information is only used for _display_ purposes: it in no way affects any of the arithmetic of the contract, including {IERC20-balanceOf} and {IERC20-transfer}."
      },
      "decreaseAllowance(address,uint256)": {
        "details": "Atomically decreases the allowance granted to `spender` by the caller. This is an alternative to {approve} that can be used as a mitigation for problems described in {IERC20-approve}. Emits an {Approval} event indicating the updated allowance. Requirements: - `spender` cannot be the zero address. - `spender` must have allowance for the caller of at least `subtractedValue`."
      },
      "getRoleAdmin(bytes32)": {
        "details": "Returns the admin role that controls `role`. See {grantRole} and {revokeRole}. To change a role's admin, use {_setRoleAdmin}."
      },
      "getRoleMember(bytes32,uint256)": {
        "details": "Returns one of the accounts that have `role`. `index` must be a value between 0 and {getRoleMemberCount}, non-inclusive. Role bearers are not sorted in any particular way, and their ordering may change at any point. WARNING: When using {getRoleMember} and {getRoleMemberCount}, make sure you perform all queries on the same block. See the following https://forum.openzeppelin.com/t/iterating-over-elements-on-enumerableset-in-openzeppelin-contracts/2296[forum post] for more information."
      },
      "getRoleMemberCount(bytes32)": {
        "details": "Returns the number of accounts that have `role`. Can be used together with {getRoleMember} to enumerate all bearers of a role."
      },
      "grantRole(bytes32,address)": {
        "details": "Overload {grantRole} to track enumerable memberships"
      },
      "hasRole(bytes32,address)": {
        "details": "Returns `true` if `account` has been granted `role`."
      },
      "increaseAllowance(address,uint256)": {
        "details": "Atomically increases the allowance granted to `spender` by the caller. This is an alternative to {approve} that can be used as a mitigation for problems described in {IERC20-approve}. Emits an {Approval} event indicating the updated allowance. Requirements: - `spender` cannot be the zero address."
      },
      "mint(address,uint256)": {
        "details": "Creates `amount` new tokens for `to`. See {ERC20-_mint}. Requirements: - the caller must have the `MINTER_ROLE`."
      },
      "name()": {
        "details": "Returns the name of the token."
      },
      "pause()": {
        "details": "Pauses all token transfers. See {ERC20Pausable} and {Pausable-_pause}. Requirements: - the caller must have the `PAUSER_ROLE`."
      },
      "paused()": {
        "details": "Returns true if the contract is paused, and false otherwise."
      },
      "renounceRole(bytes32,address)": {
        "details": "Overload {renounceRole} to track enumerable memberships"
      },
      "revokeRole(bytes32,address)": {
        "details": "Overload {revokeRole} to track enumerable memberships"
      },
      "supportsInterface(bytes4)": {
        "details": "See {IERC165-supportsInterface}."
      },
      "symbol()": {
        "details": "Returns the symbol of the token, usually a shorter version of the name."
      },
      "totalSupply()": {
        "details": "See {IERC20-totalSupply}."
      },
      "transfer(address,uint256)": {
        "details": "See {IERC20-transfer}. Requirements: - `recipient` cannot be the zero address. - the caller must have a balance of at least `amount`."
      },
      "transferFrom(address,address,uint256)": {
        "details": "See {IERC20-transferFrom}. Emits an {Approval} event indicating the updated allowance. This is not required by the EIP. See the note at the beginning of {ERC20}. Requirements: - `sender` and `recipient` cannot be the zero address. - `sender` must have a balance of at least `amount`. - the caller must have allowance for ``sender``'s tokens of at least `amount`."
      },
      "unpause()": {
        "details": "Unpauses all token transfers. See {ERC20Pausable} and {Pausable-_unpause}. Requirements: - the caller must have the `PAUSER_ROLE`."
      }
    },
    "version": 1
  },
  "userdoc": {
    "kind": "user",
    "methods": {},
    "version": 1
  }
}