{
  "contractName": "TokenFarm",
  "abi": [
    {
      "inputs": [],
      "name": "name",
      "outputs": [
        {
          "internalType": "string",
          "name": "",
          "type": "string"
        }
      ],
      "stateMutability": "view",
      "type": "function"
    }
  ],
  "bytecode": "0x60c0604052600f60808190527f4461707020546f6b656e204661726d000000000000000000000000000000000060a090815261003e9160009190610051565b5034801561004b57600080fd5b5061013e565b82805461005d906100ea565b90600052602060002090601f01602090048101928261007f57600085556100c5565b82601f1061009857805160ff19168380011785556100c5565b828001600101855582156100c5579182015b828111156100c55782518255916020019190600101906100aa565b506100d19291506100d5565b5090565b5b808211156100d157600081556001016100d6565b6002810460018216806100fe57607f821691505b60208210811415610138577f4e487b7100000000000000000000000000000000000000000000000000000000600052602260045260246000fd5b50919050565b6101d58061014d6000396000f3fe608060405234801561001057600080fd5b5060043610610047577c0100000000000000000000000000000000000000000000000000000000600035046306fdde03811461004c575b600080fd5b61005461006a565b60405161006191906100f8565b60405180910390f35b600080546100779061014b565b80601f01602080910402602001604051908101604052809291908181526020018280546100a39061014b565b80156100f05780601f106100c5576101008083540402835291602001916100f0565b820191906000526020600020905b8154815290600101906020018083116100d357829003601f168201915b505050505081565b6000602080835283518082850152825b8181101561012457858101830151858201604001528201610108565b818111156101355783604083870101525b50601f01601f1916929092016040019392505050565b60028104600182168061015f57607f821691505b60208210811415610199577f4e487b7100000000000000000000000000000000000000000000000000000000600052602260045260246000fd5b5091905056fea2646970667358221220429c80e627add5a8bef351b6806c3e9ed2aa69bbc968432855e87f143d33251764736f6c63430008040033",
  "immutableReferences": {},
  "source": "// SPDX-License-Identifier: MIT\npragma solidity >=0.4.22 <0.9.0;\n\ncontract TokenFarm {\n    // All code goes here...\n    string public name = \"Dapp Token Farm\";\n}\n",
  "sourcePath": "C:\\Escritorio\\Proyects\\FaucetProyect\\src\\contracts\\TokenFarm.sol",
  "compiler": {
    "name": "solc",
    "version": "0.8.4+commit.c7e474f2.Emscripten.clang"
  },
  "schemaVersion": "3.4.3",
  "updatedAt": "2021-09-30T02:51:24.206Z",
  "devdoc": {
    "kind": "dev",
    "methods": {},
    "version": 1
  },
  "userdoc": {
    "kind": "user",
    "methods": {},
    "version": 1
  }
}