{
  "contractName": "TuviellaToken",
  "abi": [
    {
      "inputs": [
        {
          "internalType": "address",
          "name": "masterChef",
          "type": "address"
        }
      ],
      "stateMutability": "nonpayable",
      "type": "constructor"
    },
    {
      "anonymous": false,
      "inputs": [
        {
          "indexed": true,
          "internalType": "address",
          "name": "owner",
          "type": "address"
        },
        {
          "indexed": true,
          "internalType": "address",
          "name": "spender",
          "type": "address"
        },
        {
          "indexed": false,
          "internalType": "uint256",
          "name": "value",
          "type": "uint256"
        }
      ],
      "name": "Approval",
      "type": "event"
    },
    {
      "anonymous": false,
      "inputs": [
        {
          "indexed": false,
          "internalType": "address",
          "name": "account",
          "type": "address"
        }
      ],
      "name": "Paused",
      "type": "event"
    },
    {
      "anonymous": false,
      "inputs": [
        {
          "indexed": true,
          "internalType": "bytes32",
          "name": "role",
          "type": "bytes32"
        },
        {
          "indexed": true,
          "internalType": "bytes32",
          "name": "previousAdminRole",
          "type": "bytes32"
        },
        {
          "indexed": true,
          "internalType": "bytes32",
          "name": "newAdminRole",
          "type": "bytes32"
        }
      ],
      "name": "RoleAdminChanged",
      "type": "event"
    },
    {
      "anonymous": false,
      "inputs": [
        {
          "indexed": true,
          "internalType": "bytes32",
          "name": "role",
          "type": "bytes32"
        },
        {
          "indexed": true,
          "internalType": "address",
          "name": "account",
          "type": "address"
        },
        {
          "indexed": true,
          "internalType": "address",
          "name": "sender",
          "type": "address"
        }
      ],
      "name": "RoleGranted",
      "type": "event"
    },
    {
      "anonymous": false,
      "inputs": [
        {
          "indexed": true,
          "internalType": "bytes32",
          "name": "role",
          "type": "bytes32"
        },
        {
          "indexed": true,
          "internalType": "address",
          "name": "account",
          "type": "address"
        },
        {
          "indexed": true,
          "internalType": "address",
          "name": "sender",
          "type": "address"
        }
      ],
      "name": "RoleRevoked",
      "type": "event"
    },
    {
      "anonymous": false,
      "inputs": [
        {
          "indexed": true,
          "internalType": "address",
          "name": "from",
          "type": "address"
        },
        {
          "indexed": true,
          "internalType": "address",
          "name": "to",
          "type": "address"
        },
        {
          "indexed": false,
          "internalType": "uint256",
          "name": "value",
          "type": "uint256"
        }
      ],
      "name": "Transfer",
      "type": "event"
    },
    {
      "anonymous": false,
      "inputs": [
        {
          "indexed": false,
          "internalType": "address",
          "name": "account",
          "type": "address"
        }
      ],
      "name": "Unpaused",
      "type": "event"
    },
    {
      "inputs": [],
      "name": "DEFAULT_ADMIN_ROLE",
      "outputs": [
        {
          "internalType": "bytes32",
          "name": "",
          "type": "bytes32"
        }
      ],
      "stateMutability": "view",
      "type": "function"
    },
    {
      "inputs": [],
      "name": "DEVELOPER_ROLE",
      "outputs": [
        {
          "internalType": "bytes32",
          "name": "",
          "type": "bytes32"
        }
      ],
      "stateMutability": "view",
      "type": "function"
    },
    {
      "inputs": [],
      "name": "MINTER_ROLE",
      "outputs": [
        {
          "internalType": "bytes32",
          "name": "",
          "type": "bytes32"
        }
      ],
      "stateMutability": "view",
      "type": "function"
    },
    {
      "inputs": [],
      "name": "PAUSER_ROLE",
      "outputs": [
        {
          "internalType": "bytes32",
          "name": "",
          "type": "bytes32"
        }
      ],
      "stateMutability": "view",
      "type": "function"
    },
    {
      "inputs": [
        {
          "internalType": "address",
          "name": "_wallet",
          "type": "address"
        }
      ],
      "name": "addDev",
      "outputs": [],
      "stateMutability": "nonpayable",
      "type": "function"
    },
    {
      "inputs": [
        {
          "internalType": "address",
          "name": "owner",
          "type": "address"
        },
        {
          "internalType": "address",
          "name": "spender",
          "type": "address"
        }
      ],
      "name": "allowance",
      "outputs": [
        {
          "internalType": "uint256",
          "name": "",
          "type": "uint256"
        }
      ],
      "stateMutability": "view",
      "type": "function"
    },
    {
      "inputs": [
        {
          "internalType": "address",
          "name": "spender",
          "type": "address"
        },
        {
          "internalType": "uint256",
          "name": "amount",
          "type": "uint256"
        }
      ],
      "name": "approve",
      "outputs": [
        {
          "internalType": "bool",
          "name": "",
          "type": "bool"
        }
      ],
      "stateMutability": "nonpayable",
      "type": "function"
    },
    {
      "inputs": [
        {
          "internalType": "address",
          "name": "account",
          "type": "address"
        }
      ],
      "name": "balanceOf",
      "outputs": [
        {
          "internalType": "uint256",
          "name": "",
          "type": "uint256"
        }
      ],
      "stateMutability": "view",
      "type": "function"
    },
    {
      "inputs": [
        {
          "internalType": "uint256",
          "name": "amount",
          "type": "uint256"
        }
      ],
      "name": "burn",
      "outputs": [],
      "stateMutability": "nonpayable",
      "type": "function"
    },
    {
      "inputs": [
        {
          "internalType": "address",
          "name": "account",
          "type": "address"
        },
        {
          "internalType": "uint256",
          "name": "amount",
          "type": "uint256"
        }
      ],
      "name": "burnFrom",
      "outputs": [],
      "stateMutability": "nonpayable",
      "type": "function"
    },
    {
      "inputs": [],
      "name": "decimals",
      "outputs": [
        {
          "internalType": "uint8",
          "name": "",
          "type": "uint8"
        }
      ],
      "stateMutability": "view",
      "type": "function"
    },
    {
      "inputs": [
        {
          "internalType": "address",
          "name": "spender",
          "type": "address"
        },
        {
          "internalType": "uint256",
          "name": "subtractedValue",
          "type": "uint256"
        }
      ],
      "name": "decreaseAllowance",
      "outputs": [
        {
          "internalType": "bool",
          "name": "",
          "type": "bool"
        }
      ],
      "stateMutability": "nonpayable",
      "type": "function"
    },
    {
      "inputs": [],
      "name": "getBurnFee",
      "outputs": [
        {
          "internalType": "uint16",
          "name": "",
          "type": "uint16"
        }
      ],
      "stateMutability": "view",
      "type": "function"
    },
    {
      "inputs": [],
      "name": "getDevsFee",
      "outputs": [
        {
          "internalType": "uint16",
          "name": "",
          "type": "uint16"
        }
      ],
      "stateMutability": "view",
      "type": "function"
    },
    {
      "inputs": [],
      "name": "getHolderFee",
      "outputs": [
        {
          "internalType": "uint16",
          "name": "",
          "type": "uint16"
        }
      ],
      "stateMutability": "view",
      "type": "function"
    },
    {
      "inputs": [
        {
          "internalType": "bytes32",
          "name": "role",
          "type": "bytes32"
        }
      ],
      "name": "getRoleAdmin",
      "outputs": [
        {
          "internalType": "bytes32",
          "name": "",
          "type": "bytes32"
        }
      ],
      "stateMutability": "view",
      "type": "function"
    },
    {
      "inputs": [
        {
          "internalType": "bytes32",
          "name": "role",
          "type": "bytes32"
        },
        {
          "internalType": "uint256",
          "name": "index",
          "type": "uint256"
        }
      ],
      "name": "getRoleMember",
      "outputs": [
        {
          "internalType": "address",
          "name": "",
          "type": "address"
        }
      ],
      "stateMutability": "view",
      "type": "function"
    },
    {
      "inputs": [
        {
          "internalType": "bytes32",
          "name": "role",
          "type": "bytes32"
        }
      ],
      "name": "getRoleMemberCount",
      "outputs": [
        {
          "internalType": "uint256",
          "name": "",
          "type": "uint256"
        }
      ],
      "stateMutability": "view",
      "type": "function"
    },
    {
      "inputs": [],
      "name": "getTransactionFee",
      "outputs": [
        {
          "internalType": "uint16",
          "name": "",
          "type": "uint16"
        }
      ],
      "stateMutability": "view",
      "type": "function"
    },
    {
      "inputs": [
        {
          "internalType": "bytes32",
          "name": "role",
          "type": "bytes32"
        },
        {
          "internalType": "address",
          "name": "account",
          "type": "address"
        }
      ],
      "name": "grantRole",
      "outputs": [],
      "stateMutability": "nonpayable",
      "type": "function"
    },
    {
      "inputs": [
        {
          "internalType": "bytes32",
          "name": "role",
          "type": "bytes32"
        },
        {
          "internalType": "address",
          "name": "account",
          "type": "address"
        }
      ],
      "name": "hasRole",
      "outputs": [
        {
          "internalType": "bool",
          "name": "",
          "type": "bool"
        }
      ],
      "stateMutability": "view",
      "type": "function"
    },
    {
      "inputs": [
        {
          "internalType": "address",
          "name": "spender",
          "type": "address"
        },
        {
          "internalType": "uint256",
          "name": "addedValue",
          "type": "uint256"
        }
      ],
      "name": "increaseAllowance",
      "outputs": [
        {
          "internalType": "bool",
          "name": "",
          "type": "bool"
        }
      ],
      "stateMutability": "nonpayable",
      "type": "function"
    },
    {
      "inputs": [],
      "name": "lastTransfer",
      "outputs": [
        {
          "internalType": "address",
          "name": "",
          "type": "address"
        }
      ],
      "stateMutability": "view",
      "type": "function"
    },
    {
      "inputs": [],
      "name": "name",
      "outputs": [
        {
          "internalType": "string",
          "name": "",
          "type": "string"
        }
      ],
      "stateMutability": "view",
      "type": "function"
    },
    {
      "inputs": [],
      "name": "paused",
      "outputs": [
        {
          "internalType": "bool",
          "name": "",
          "type": "bool"
        }
      ],
      "stateMutability": "view",
      "type": "function"
    },
    {
      "inputs": [
        {
          "internalType": "address",
          "name": "_wallet",
          "type": "address"
        }
      ],
      "name": "removeDev",
      "outputs": [],
      "stateMutability": "nonpayable",
      "type": "function"
    },
    {
      "inputs": [
        {
          "internalType": "bytes32",
          "name": "role",
          "type": "bytes32"
        },
        {
          "internalType": "address",
          "name": "account",
          "type": "address"
        }
      ],
      "name": "renounceRole",
      "outputs": [],
      "stateMutability": "nonpayable",
      "type": "function"
    },
    {
      "inputs": [
        {
          "internalType": "bytes32",
          "name": "role",
          "type": "bytes32"
        },
        {
          "internalType": "address",
          "name": "account",
          "type": "address"
        }
      ],
      "name": "revokeRole",
      "outputs": [],
      "stateMutability": "nonpayable",
      "type": "function"
    },
    {
      "inputs": [
        {
          "internalType": "uint16",
          "name": "_fee",
          "type": "uint16"
        }
      ],
      "name": "setBurnFee",
      "outputs": [],
      "stateMutability": "nonpayable",
      "type": "function"
    },
    {
      "inputs": [
        {
          "internalType": "uint16",
          "name": "_fee",
          "type": "uint16"
        }
      ],
      "name": "setDevsFee",
      "outputs": [],
      "stateMutability": "nonpayable",
      "type": "function"
    },
    {
      "inputs": [
        {
          "internalType": "uint16",
          "name": "_fee",
          "type": "uint16"
        }
      ],
      "name": "setHolderFee",
      "outputs": [],
      "stateMutability": "nonpayable",
      "type": "function"
    },
    {
      "inputs": [
        {
          "internalType": "uint16",
          "name": "_fee",
          "type": "uint16"
        }
      ],
      "name": "setTransactionFee",
      "outputs": [],
      "stateMutability": "nonpayable",
      "type": "function"
    },
    {
      "inputs": [
        {
          "internalType": "bytes4",
          "name": "interfaceId",
          "type": "bytes4"
        }
      ],
      "name": "supportsInterface",
      "outputs": [
        {
          "internalType": "bool",
          "name": "",
          "type": "bool"
        }
      ],
      "stateMutability": "view",
      "type": "function"
    },
    {
      "inputs": [],
      "name": "symbol",
      "outputs": [
        {
          "internalType": "string",
          "name": "",
          "type": "string"
        }
      ],
      "stateMutability": "view",
      "type": "function"
    },
    {
      "inputs": [],
      "name": "totalSupply",
      "outputs": [
        {
          "internalType": "uint256",
          "name": "",
          "type": "uint256"
        }
      ],
      "stateMutability": "view",
      "type": "function"
    },
    {
      "inputs": [
        {
          "internalType": "address",
          "name": "recipient",
          "type": "address"
        },
        {
          "internalType": "uint256",
          "name": "amount",
          "type": "uint256"
        }
      ],
      "name": "transfer",
      "outputs": [
        {
          "internalType": "bool",
          "name": "",
          "type": "bool"
        }
      ],
      "stateMutability": "nonpayable",
      "type": "function"
    },
    {
      "inputs": [
        {
          "internalType": "address",
          "name": "sender",
          "type": "address"
        },
        {
          "internalType": "address",
          "name": "recipient",
          "type": "address"
        },
        {
          "internalType": "uint256",
          "name": "amount",
          "type": "uint256"
        }
      ],
      "name": "transferFrom",
      "outputs": [
        {
          "internalType": "bool",
          "name": "",
          "type": "bool"
        }
      ],
      "stateMutability": "nonpayable",
      "type": "function"
    },
    {
      "inputs": [
        {
          "internalType": "address",
          "name": "to",
          "type": "address"
        },
        {
          "internalType": "uint256",
          "name": "amount",
          "type": "uint256"
        }
      ],
      "name": "mint",
      "outputs": [],
      "stateMutability": "nonpayable",
      "type": "function"
    },
    {
      "inputs": [],
      "name": "pause",
      "outputs": [],
      "stateMutability": "nonpayable",
      "type": "function"
    },
    {
      "inputs": [],
      "name": "unpause",
      "outputs": [],
      "stateMutability": "nonpayable",
      "type": "function"
    },
    {
      "inputs": [],
      "name": "devsGetPaid",
      "outputs": [],
      "stateMutability": "nonpayable",
      "type": "function"
    }
  ],
  "bytecode": "0x60806040526008805467ffffffffffffffff19166709c409c4138800461790553480156200002c57600080fd5b50604051620027c4380380620027c48339810160408190526200004f91620005be565b6040518060400160405280600e81526020017f54757669656c6c6120546f6b656e0000000000000000000000000000000000008152506040518060400160405280600381526020017f54565400000000000000000000000000000000000000000000000000000000008152508160039080519060200190620000d392919062000518565b508051620000e990600490602084019062000518565b50506005805460ff19169055506200013d7f4504b9dfd7400a1522f49a8b4a100552da9236849581fd59b7363eb48c6a474c6200012e64010000000062000226810204565b6401000000006200022a810204565b69d3c21bcecceda10000006200015d828264010000000062000271810204565b6200017660006200012e64010000000062000226810204565b620001ae7f9f2df0fed2c77648de5860a4cc508cd0818c85b8b8a1ab4ceeef8d981c8956a66200012e64010000000062000226810204565b620001e67f65d7a28e3265b37a6474929f336521b332c1681b933f6cb9f3376673440d862a6200012e64010000000062000226810204565b620001f964010000000062000226810204565b6008806101000a815481600160a060020a030219169083600160a060020a03160217905550505062000682565b3390565b62000244828264010000000062000df6620003a182021704565b60008281526007602052604090206200026c908264010000000062000e00620003b682021704565b505050565b600160a060020a038216620002e6576040517f08c379a000000000000000000000000000000000000000000000000000000000815260206004820152601f60248201527f45524332303a206d696e7420746f20746865207a65726f206164647265737300604482015260640160405180910390fd5b620002fd600083836401000000006200026c810204565b8060026000828254620003119190620005ee565b9091555050600160a060020a0382166000908152602081905260408120805483929062000340908490620005ee565b9091555050604051818152600160a060020a038316906000907fddf252ad1be2c89b69c2b068fc378daa952ba7f163c4a11628f55a4df523b3ef9060200160405180910390a36200039d600083836401000000006200026c810204565b5050565b6200039d8282640100000000620003df810204565b6000620003d683600160a060020a0384166401000000006200047d810204565b90505b92915050565b620003f48282640100000000620004d5810204565b6200039d576000828152600660209081526040808320600160a060020a03851684529091529020805460ff191660011790556200043964010000000062000226810204565b600160a060020a031681600160a060020a0316837f2f8788117e7eff1d82e926ec794901d17c78024a50270940304540a733656f0d60405160405180910390a45050565b600062000494838364010000000062000500810204565b620004cc57508154600181810184556000848152602080822090930184905584548482528286019093526040902091909155620003d9565b506000620003d9565b6000918252600660209081526040808420600160a060020a0393909316845291905290205460ff1690565b60009081526001919091016020526040902054151590565b82805462000526906200062c565b90600052602060002090601f0160209004810192826200054a576000855562000595565b82601f106200056557805160ff191683800117855562000595565b8280016001018555821562000595579182015b828111156200059557825182559160200191906001019062000578565b50620005a3929150620005a7565b5090565b5b80821115620005a35760008155600101620005a8565b600060208284031215620005d0578081fd5b8151600160a060020a0381168114620005e7578182fd5b9392505050565b6000821982111562000627577f4e487b710000000000000000000000000000000000000000000000000000000081526011600452602481fd5b500190565b6002810460018216806200064157607f821691505b602082108114156200067c577f4e487b7100000000000000000000000000000000000000000000000000000000600052602260045260246000fd5b50919050565b61213280620006926000396000f3fe608060405234801561001057600080fd5b5060043610610270576000357c01000000000000000000000000000000000000000000000000000000009004806385d7910211610163578063b91d3ace116100e0578063dd62ed3e116100a4578063dd62ed3e14610597578063e63ab1e9146105d0578063e84d2696146105f7578063ee4b430714610616578063ef46a6fc1461064c578063faa271ff1461065457600080fd5b8063b91d3ace14610524578063c4026d7b14610537578063ca15c8731461054a578063d53913931461055d578063d547741f1461058457600080fd5b8063a217fddf11610127578063a217fddf146104be578063a457c2d7146104c6578063a9059cbb146104d9578063aa4b10d1146104ec578063b45940f2146104fe57600080fd5b806385d79102146104575780639010d07c146104635780639103a0e01461048e57806391d14854146104a357806395d89b41146104b657600080fd5b80633f4ba83a116101f15780635c975abb116101b55780635c975abb146103d657806370a08231146103e157806371867b231461040a57806379cc67901461043c5780638456cb591461044f57600080fd5b80633f4ba83a1461035757806340c10f191461035f57806342966c681461037257806346e509941461038557806349de5f87146103a857600080fd5b8063248a9ca311610238578063248a9ca3146102ea5780632f2ff15d1461030d578063313ce5671461032257806336568abe14610331578063395093511461034457600080fd5b806301ffc9a71461027557806306fdde031461029d578063095ea7b3146102b257806318160ddd146102c557806323b872dd146102d7575b600080fd5b610288610283366004611eb8565b61066a565b60405190151581526020015b60405180910390f35b6102a56106ae565b6040516102949190611f83565b6102886102c0366004611e34565b610740565b6002545b604051908152602001610294565b6102886102e5366004611df9565b610756565b6102c96102f8366004611e5d565b60009081526006602052604090206001015490565b61032061031b366004611e75565b61081d565b005b60405160128152602001610294565b61032061033f366004611e75565b610844565b610288610352366004611e34565b610866565b6103206108a2565b61032061036d366004611e34565b61094b565b610320610380366004611e5d565b6109f8565b600854640100000000900461ffff165b60405161ffff9091168152602001610294565b6103206103b6366004611ee0565b6008805461ffff909216620100000263ffff000019909216919091179055565b60055460ff16610288565b6102c96103ef366004611dad565b600160a060020a031660009081526020819052604090205490565b610320610418366004611ee0565b6008805461ffff9092166401000000000265ffff0000000019909216919091179055565b61032061044a366004611e34565b610a05565b610320610aa2565b60085461ffff16610395565b610476610471366004611e97565b610b49565b604051600160a060020a039091168152602001610294565b6102c96000805160206120dd83398151915281565b6102886104b1366004611e75565b610b68565b6102a5610b93565b6102c9600081565b6102886104d4366004611e34565b610ba2565b6102886104e7366004611e34565b610c56565b60085462010000900461ffff16610395565b61032061050c366004611ee0565b6008805461ffff191661ffff92909216919091179055565b610320610532366004611dad565b610c63565b610320610545366004611dad565b610c7b565b6102c9610558366004611e5d565b610c93565b6102c97f9f2df0fed2c77648de5860a4cc508cd0818c85b8b8a1ab4ceeef8d981c8956a681565b610320610592366004611e75565b610caa565b6102c96105a5366004611dc7565b600160a060020a03918216600090815260016020908152604080832093909416825291909152205490565b6102c97f65d7a28e3265b37a6474929f336521b332c1681b933f6cb9f3376673440d862a81565b60085461047690680100000000000000009004600160a060020a031681565b610320610624366004611ee0565b6008805461ffff90921666010000000000000267ffff00000000000019909216919091179055565b610320610cb4565b6008546601000000000000900461ffff16610395565b6000600160e060020a031982167f5a05180f0000000000000000000000000000000000000000000000000000000014806106a857506106a882610e15565b92915050565b6060600380546106bd9061206a565b80601f01602080910402602001604051908101604052809291908181526020018280546106e99061206a565b80156107365780601f1061070b57610100808354040283529160200191610736565b820191906000526020600020905b81548152906001019060200180831161071957829003601f168201915b5050505050905090565b600061074d338484610e7c565b50600192915050565b6000610763848484610fda565b600160a060020a0384166000908152600160209081526040808320338452909152902054828110156108055760405160e560020a62461bcd02815260206004820152602860248201527f45524332303a207472616e7366657220616d6f756e742065786365656473206160448201527f6c6c6f77616e636500000000000000000000000000000000000000000000000060648201526084015b60405180910390fd5b6108128533858403610e7c565b506001949350505050565b6108278282611135565b600082815260076020526040902061083f9082610e00565b505050565b61084e828261115b565b600082815260076020526040902061083f90826111e6565b336000818152600160209081526040808320600160a060020a0387168452909152812054909161074d91859061089d908690611fb6565b610e7c565b6108cc7f65d7a28e3265b37a6474929f336521b332c1681b933f6cb9f3376673440d862a33610b68565b6109415760405160e560020a62461bcd02815260206004820152602960248201527f556e50617573653a206d75737420686176652070617573657220726f6c65207460448201527f6f20756e7061757365000000000000000000000000000000000000000000000060648201526084016107fc565b6109496111fb565b565b6109757f9f2df0fed2c77648de5860a4cc508cd0818c85b8b8a1ab4ceeef8d981c8956a633610b68565b6109ea5760405160e560020a62461bcd02815260206004820152602360248201527f4d696e743a206d7573742068617665206d696e74657220726f6c6520746f206d60448201527f696e74000000000000000000000000000000000000000000000000000000000060648201526084016107fc565b6109f4828261129a565b5050565b610a02338261137c565b50565b6000610a1183336105a5565b905081811015610a8b5760405160e560020a62461bcd028152602060048201526024808201527f45524332303a206275726e20616d6f756e74206578636565647320616c6c6f7760448201527f616e63650000000000000000000000000000000000000000000000000000000060648201526084016107fc565b610a988333848403610e7c565b61083f838361137c565b610acc7f65d7a28e3265b37a6474929f336521b332c1681b933f6cb9f3376673440d862a33610b68565b610b415760405160e560020a62461bcd02815260206004820152602560248201527f50617573653a206d75737420686176652070617573657220726f6c6520746f2060448201527f706175736500000000000000000000000000000000000000000000000000000060648201526084016107fc565b610949611507565b6000828152600760205260408120610b619083611592565b9392505050565b6000918252600660209081526040808420600160a060020a0393909316845291905290205460ff1690565b6060600480546106bd9061206a565b336000908152600160209081526040808320600160a060020a038616845290915281205482811015610c3f5760405160e560020a62461bcd02815260206004820152602560248201527f45524332303a2064656372656173656420616c6c6f77616e63652062656c6f7760448201527f207a65726f00000000000000000000000000000000000000000000000000000060648201526084016107fc565b610c4c3385858403610e7c565b5060019392505050565b600061074d338484610fda565b610a026000805160206120dd8339815191528261081d565b610a026000805160206120dd83398151915282610caa565b60008181526007602052604081206106a89061159e565b61084e82826115a8565b6000610ccd6000805160206120dd833981519152610c93565b90506000610ce760085461ffff6401000000009091041690565b61ffff1690506000610d0360085461ffff620100009091041690565b61ffff1690506000610d158284611fb6565b30600090815260208190526040902054610d30908590611ff1565b610d3a9190611fce565b9050670de0b6b3a76400008111610d965760405160e560020a62461bcd02815260206004820152601760248201527f4e6f7420656e6f75676820666f722065766572796f6e6500000000000000000060448201526064016107fc565b60005b84811015610dd557610dc330610dbd6000805160206120dd83398151915284610b49565b846115ce565b80610dcd816120a8565b915050610d99565b5030600081815260208190526040902054610df0919061137c565b50505050565b6109f482826117ee565b6000610b6183600160a060020a038416611874565b6000600160e060020a031982167f7965db0b0000000000000000000000000000000000000000000000000000000014806106a857507f01ffc9a700000000000000000000000000000000000000000000000000000000600160e060020a03198316146106a8565b600160a060020a038316610efa5760405160e560020a62461bcd028152602060048201526024808201527f45524332303a20617070726f76652066726f6d20746865207a65726f2061646460448201527f726573730000000000000000000000000000000000000000000000000000000060648201526084016107fc565b600160a060020a038216610f795760405160e560020a62461bcd02815260206004820152602260248201527f45524332303a20617070726f766520746f20746865207a65726f20616464726560448201527f737300000000000000000000000000000000000000000000000000000000000060648201526084016107fc565b600160a060020a0383811660008181526001602090815260408083209487168084529482529182902085905590518481527f8c5be1e5ebec7d5bd14f71427d1e84f3dd0314c0f7b2291e5b200ac8c7c3b925910160405180910390a3505050565b6000612710610fec60085461ffff1690565b610ffa9061ffff1684611ff1565b6110049190611fce565b9050600061271061101f60085461ffff620100009091041690565b61102d9061ffff1684611ff1565b6110379190611fce565b9050600061271061105460085461ffff6401000000009091041690565b6110629061ffff1685611ff1565b61106c9190611fce565b9050600061271061108b60085461ffff66010000000000009091041690565b6110999061ffff1686611ff1565b6110a39190611fce565b90506110b987306110b48587611fb6565b6115ce565b6110d78760088054906101000a9004600160a060020a0316836115ce565b600880547fffffffff0000000000000000000000000000000000000000ffffffffffffffff1668010000000000000000600160a060020a038a160217905561111f8486612010565b945061112c8787876115ce565b50505050505050565b60008281526006602052604090206001015461115181336118c3565b61083f83836117ee565b600160a060020a03811633146111dc5760405160e560020a62461bcd02815260206004820152602f60248201527f416363657373436f6e74726f6c3a2063616e206f6e6c792072656e6f756e636560448201527f20726f6c657320666f722073656c66000000000000000000000000000000000060648201526084016107fc565b6109f4828261192a565b6000610b6183600160a060020a038416611991565b60055460ff166112505760405160e560020a62461bcd02815260206004820152601460248201527f5061757361626c653a206e6f742070617573656400000000000000000000000060448201526064016107fc565b6005805460ff191690557f5db9ee0a495bf2e6ff9c91a7834c1ba4fdd244a5e8aa4e537bd38aeae4b073aa335b604051600160a060020a03909116815260200160405180910390a1565b600160a060020a0382166112f35760405160e560020a62461bcd02815260206004820152601f60248201527f45524332303a206d696e7420746f20746865207a65726f20616464726573730060448201526064016107fc565b80600260008282546113059190611fb6565b9091555050600160a060020a03821660009081526020819052604081208054839290611332908490611fb6565b9091555050604051818152600160a060020a038316906000907fddf252ad1be2c89b69c2b068fc378daa952ba7f163c4a11628f55a4df523b3ef9060200160405180910390a35050565b600160a060020a0382166113fb5760405160e560020a62461bcd02815260206004820152602160248201527f45524332303a206275726e2066726f6d20746865207a65726f2061646472657360448201527f730000000000000000000000000000000000000000000000000000000000000060648201526084016107fc565b600160a060020a0382166000908152602081905260409020548181101561148d5760405160e560020a62461bcd02815260206004820152602260248201527f45524332303a206275726e20616d6f756e7420657863656564732062616c616e60448201527f636500000000000000000000000000000000000000000000000000000000000060648201526084016107fc565b600160a060020a03831660009081526020819052604081208383039055600280548492906114bc908490612010565b9091555050604051828152600090600160a060020a038516907fddf252ad1be2c89b69c2b068fc378daa952ba7f163c4a11628f55a4df523b3ef9060200160405180910390a3505050565b60055460ff161561155d5760405160e560020a62461bcd02815260206004820152601060248201527f5061757361626c653a207061757365640000000000000000000000000000000060448201526064016107fc565b6005805460ff191660011790557f62e78cea01bee320cd4e420270b5ea74000d11b0c9f74754ebdbfc544b05a25861127d3390565b6000610b618383611ab7565b60006106a8825490565b6000828152600660205260409020600101546115c481336118c3565b61083f838361192a565b600160a060020a03831661164d5760405160e560020a62461bcd02815260206004820152602560248201527f45524332303a207472616e736665722066726f6d20746865207a65726f20616460448201527f647265737300000000000000000000000000000000000000000000000000000060648201526084016107fc565b600160a060020a0382166116cc5760405160e560020a62461bcd02815260206004820152602360248201527f45524332303a207472616e7366657220746f20746865207a65726f206164647260448201527f657373000000000000000000000000000000000000000000000000000000000060648201526084016107fc565b600160a060020a0383166000908152602081905260409020548181101561175e5760405160e560020a62461bcd02815260206004820152602660248201527f45524332303a207472616e7366657220616d6f756e742065786365656473206260448201527f616c616e6365000000000000000000000000000000000000000000000000000060648201526084016107fc565b600160a060020a03808516600090815260208190526040808220858503905591851681529081208054849290611795908490611fb6565b9250508190555082600160a060020a031684600160a060020a03167fddf252ad1be2c89b69c2b068fc378daa952ba7f163c4a11628f55a4df523b3ef846040516117e191815260200190565b60405180910390a3610df0565b6117f88282610b68565b6109f4576000828152600660209081526040808320600160a060020a03851684529091529020805460ff191660011790556118303390565b600160a060020a031681600160a060020a0316837f2f8788117e7eff1d82e926ec794901d17c78024a50270940304540a733656f0d60405160405180910390a45050565b60008181526001830160205260408120546118bb575081546001818101845560008481526020808220909301849055845484825282860190935260409020919091556106a8565b5060006106a8565b6118cd8282610b68565b6109f4576118e581600160a060020a03166014611af2565b6118f0836020611af2565b604051602001611901929190611f02565b60408051601f198184030181529082905260e560020a62461bcd0282526107fc91600401611f83565b6119348282610b68565b156109f4576000828152600660209081526040808320600160a060020a0385168085529252808320805460ff1916905551339285917ff6391f5c32d9c69d2a47ea670b442974b53935d1edc7fd64eb21e047a839171b9190a45050565b60008181526001830160205260408120548015611aad5760006119b5600183612010565b85549091506000906119c990600190612010565b9050818114611a505760008660000182815481106119fa5760e060020a634e487b7102600052603260045260246000fd5b9060005260206000200154905080876000018481548110611a2e5760e060020a634e487b7102600052603260045260246000fd5b6000918252602080832090910192909255918252600188019052604090208390555b8554869080611a725760e060020a634e487b7102600052603160045260246000fd5b6001900381819060005260206000200160009055905585600101600086815260200190815260200160002060009055600193505050506106a8565b60009150506106a8565b6000826000018281548110611adf5760e060020a634e487b7102600052603260045260246000fd5b9060005260206000200154905092915050565b60606000611b01836002611ff1565b611b0c906002611fb6565b67ffffffffffffffff811115611b355760e060020a634e487b7102600052604160045260246000fd5b6040519080825280601f01601f191660200182016040528015611b5f576020820181803683370190505b5090507f300000000000000000000000000000000000000000000000000000000000000081600081518110611ba75760e060020a634e487b7102600052603260045260246000fd5b60200101907effffffffffffffffffffffffffffffffffffffffffffffffffffffffffffff1916908160001a9053507f780000000000000000000000000000000000000000000000000000000000000081600181518110611c1b5760e060020a634e487b7102600052603260045260246000fd5b60200101907effffffffffffffffffffffffffffffffffffffffffffffffffffffffffffff1916908160001a9053506000611c57846002611ff1565b611c62906001611fb6565b90505b6001811115611d3f577f303132333435363738396162636465660000000000000000000000000000000085600f1660108110611cb45760e060020a634e487b7102600052603260045260246000fd5b1a7f010000000000000000000000000000000000000000000000000000000000000002828281518110611cfa5760e060020a634e487b7102600052603260045260246000fd5b60200101907effffffffffffffffffffffffffffffffffffffffffffffffffffffffffffff1916908160001a905350601090940493611d3881612053565b9050611c65565b508315610b615760405160e560020a62461bcd02815260206004820181905260248201527f537472696e67733a20686578206c656e67746820696e73756666696369656e7460448201526064016107fc565b8035600160a060020a0381168114611da857600080fd5b919050565b600060208284031215611dbe578081fd5b610b6182611d91565b60008060408385031215611dd9578081fd5b611de283611d91565b9150611df060208401611d91565b90509250929050565b600080600060608486031215611e0d578081fd5b611e1684611d91565b9250611e2460208501611d91565b9150604084013590509250925092565b60008060408385031215611e46578182fd5b611e4f83611d91565b946020939093013593505050565b600060208284031215611e6e578081fd5b5035919050565b60008060408385031215611e87578182fd5b82359150611df060208401611d91565b60008060408385031215611ea9578182fd5b50508035926020909101359150565b600060208284031215611ec9578081fd5b8135600160e060020a031981168114610b61578182fd5b600060208284031215611ef1578081fd5b813561ffff81168114610b61578182fd5b7f416363657373436f6e74726f6c3a206163636f756e7420000000000000000000815260008351611f3a816017850160208801612027565b7f206973206d697373696e6720726f6c65200000000000000000000000000000006017918401918201528351611f77816028840160208801612027565b01602801949350505050565b6020815260008251806020840152611fa2816040850160208701612027565b601f01601f19169190910160400192915050565b60008219821115611fc957611fc96120c3565b500190565b600082611fec5760e060020a634e487b710281526012600452602481fd5b500490565b600081600019048311821515161561200b5761200b6120c3565b500290565b600082821015612022576120226120c3565b500390565b60005b8381101561204257818101518382015260200161202a565b83811115610df05750506000910152565b600081612062576120626120c3565b506000190190565b60028104600182168061207e57607f821691505b602082108114156120a25760e060020a634e487b7102600052602260045260246000fd5b50919050565b60006000198214156120bc576120bc6120c3565b5060010190565b60e060020a634e487b7102600052601160045260246000fdfe4504b9dfd7400a1522f49a8b4a100552da9236849581fd59b7363eb48c6a474ca2646970667358221220d56919ceadbc61be25bd4bba092ff3c22db7d62f13b18198cecc21df3c061ecc64736f6c63430008040033",
  "immutableReferences": {},
  "source": "// SPDX-License-Identifier: MIT\r\npragma solidity >=0.4.22 <0.9.0;\r\n\r\nimport \"@openzeppelin/contracts/token/ERC20/ERC20.sol\";\r\nimport \"@openzeppelin/contracts/token/ERC20/extensions/ERC20Burnable.sol\";\r\nimport \"@openzeppelin/contracts/token/ERC20/extensions/ERC20Pausable.sol\";\r\nimport \"@openzeppelin/contracts/access/AccessControlEnumerable.sol\";\r\nimport \"../contracts/TransactionFee.sol\";\r\n\r\ncontract TuviellaToken is ERC20, ERC20Burnable, ERC20Pausable, AccessControlEnumerable, TransactionFee {\r\n  bytes32 public constant MINTER_ROLE = keccak256(\"MINTER_ROLE\");\r\n  bytes32 public constant PAUSER_ROLE = keccak256(\"PAUSER_ROLE\");\r\n\r\n  address public lastTransfer;\r\n\r\n  /**\r\n   * @dev Grants `DEFAULT_ADMIN_ROLE`, `MINTER_ROLE` and `PAUSER_ROLE` to the\r\n   * account that deploys the contract and mint 1million tokens to master chef address\r\n   *\r\n   * See {ERC20-constructor}.\r\n   */\r\n  constructor(address masterChef) ERC20('Tuviella Token', 'TVT') TransactionFee() {\r\n    uint initial = 1000000 ether;\r\n    _mint(masterChef, initial);\r\n    _setupRole(DEFAULT_ADMIN_ROLE, _msgSender());\r\n\r\n    _setupRole(MINTER_ROLE, _msgSender());\r\n    _setupRole(PAUSER_ROLE, _msgSender());\r\n\r\n    lastTransfer = _msgSender();\r\n  }\r\n\r\n  /**\r\n   * @dev Creates `amount` new tokens for `to`.\r\n   *\r\n   * See {ERC20-_mint}.\r\n   *\r\n   * Requirements:\r\n   *\r\n   * - the caller must have the `MINTER_ROLE`.\r\n   */\r\n  function mint(address to, uint256 amount) public virtual {\r\n    require(hasRole(MINTER_ROLE, _msgSender()), \"Mint: must have minter role to mint\");\r\n    _mint(to, amount);\r\n  }\r\n\r\n  /**\r\n   * @dev Pauses all token transfers.\r\n   *\r\n   * See {ERC20Pausable} and {Pausable-_pause}.\r\n   *\r\n   * Requirements:\r\n   *\r\n   * - the caller must have the `PAUSER_ROLE`.\r\n   */\r\n  function pause() public virtual {\r\n    require(hasRole(PAUSER_ROLE, _msgSender()), \"Pause: must have pauser role to pause\");\r\n    _pause();\r\n  }\r\n\r\n  /**\r\n   * @dev Unpauses all token transfers.\r\n   *\r\n   * See {ERC20Pausable} and {Pausable-_unpause}.\r\n   *\r\n   * Requirements:\r\n   *\r\n   * - the caller must have the `PAUSER_ROLE`.\r\n   */\r\n  function unpause() public virtual {\r\n    require(hasRole(PAUSER_ROLE, _msgSender()), \"UnPause: must have pauser role to unpause\");\r\n    _unpause();\r\n  }\r\n\r\n  function _beforeTokenTransfer(address from, address to, uint256 amount) internal virtual override(ERC20, ERC20Pausable){ }\r\n\r\n  function _transfer(address sender, address recipient, uint256 amount) internal virtual override(ERC20){\r\n    uint txFee = amount * getTransactionFee() / 10000;\r\n    uint amountBurn = txFee * getBurnFee() / 10000;\r\n    uint amountDevs = txFee * getDevsFee() / 10000;\r\n    uint amountHolder = txFee * getHolderFee() / 10000;\r\n    \r\n    super._transfer(sender, address(this), amountBurn + amountDevs);\r\n    super._transfer(sender, lastTransfer, amountHolder);\r\n    lastTransfer = sender;\r\n  \r\n    amount -= txFee;\r\n    super._transfer(sender, recipient, amount);\r\n  }\r\n\r\n  function devsGetPaid() external{\r\n    uint devCount = getRoleMemberCount(DEVELOPER_ROLE);\r\n\r\n    uint dFee = getDevsFee();\r\n    uint bFee = getBurnFee();\r\n\r\n    uint toDevs = balanceOf(address(this)) * dFee / (dFee + bFee);\r\n\r\n    require(toDevs > 1 ether, \"Not enough for everyone\");\r\n\r\n    for(uint i = 0; i < devCount; i++){\r\n      super._transfer(address(this), getRoleMember(DEVELOPER_ROLE, i), toDevs);\r\n    }\r\n\r\n    _burn(address(this), balanceOf(address(this)));\r\n  }\r\n\r\n}\r\n",
  "sourcePath": "D:\\USUARIOs\\Guillermo\\Desktop\\tuviella-frontend\\contracts\\TuviellaToken.sol",
  "compiler": {
    "name": "solc",
    "version": "0.8.4+commit.c7e474f2.Emscripten.clang"
  },
  "schemaVersion": "3.4.3",
  "updatedAt": "2021-10-07T16:10:43.248Z",
  "devdoc": {
    "kind": "dev",
    "methods": {
      "allowance(address,address)": {
        "details": "See {IERC20-allowance}."
      },
      "approve(address,uint256)": {
        "details": "See {IERC20-approve}. Requirements: - `spender` cannot be the zero address."
      },
      "balanceOf(address)": {
        "details": "See {IERC20-balanceOf}."
      },
      "burn(uint256)": {
        "details": "Destroys `amount` tokens from the caller. See {ERC20-_burn}."
      },
      "burnFrom(address,uint256)": {
        "details": "Destroys `amount` tokens from `account`, deducting from the caller's allowance. See {ERC20-_burn} and {ERC20-allowance}. Requirements: - the caller must have allowance for ``accounts``'s tokens of at least `amount`."
      },
      "constructor": {
        "details": "Grants `DEFAULT_ADMIN_ROLE`, `MINTER_ROLE` and `PAUSER_ROLE` to the account that deploys the contract and mint 1million tokens to master chef address See {ERC20-constructor}."
      },
      "decimals()": {
        "details": "Returns the number of decimals used to get its user representation. For example, if `decimals` equals `2`, a balance of `505` tokens should be displayed to a user as `5.05` (`505 / 10 ** 2`). Tokens usually opt for a value of 18, imitating the relationship between Ether and Wei. This is the value {ERC20} uses, unless this function is overridden; NOTE: This information is only used for _display_ purposes: it in no way affects any of the arithmetic of the contract, including {IERC20-balanceOf} and {IERC20-transfer}."
      },
      "decreaseAllowance(address,uint256)": {
        "details": "Atomically decreases the allowance granted to `spender` by the caller. This is an alternative to {approve} that can be used as a mitigation for problems described in {IERC20-approve}. Emits an {Approval} event indicating the updated allowance. Requirements: - `spender` cannot be the zero address. - `spender` must have allowance for the caller of at least `subtractedValue`."
      },
      "getBurnFee()": {
        "details": "Get burn fee for every transaction"
      },
      "getDevsFee()": {
        "details": "Get devs fee for every transaction"
      },
      "getHolderFee()": {
        "details": "Get holder fee for every transaction"
      },
      "getRoleAdmin(bytes32)": {
        "details": "Returns the admin role that controls `role`. See {grantRole} and {revokeRole}. To change a role's admin, use {_setRoleAdmin}."
      },
      "getRoleMember(bytes32,uint256)": {
        "details": "Returns one of the accounts that have `role`. `index` must be a value between 0 and {getRoleMemberCount}, non-inclusive. Role bearers are not sorted in any particular way, and their ordering may change at any point. WARNING: When using {getRoleMember} and {getRoleMemberCount}, make sure you perform all queries on the same block. See the following https://forum.openzeppelin.com/t/iterating-over-elements-on-enumerableset-in-openzeppelin-contracts/2296[forum post] for more information."
      },
      "getRoleMemberCount(bytes32)": {
        "details": "Returns the number of accounts that have `role`. Can be used together with {getRoleMember} to enumerate all bearers of a role."
      },
      "getTransactionFee()": {
        "details": "Get transaction fee to pay for every transaction"
      },
      "grantRole(bytes32,address)": {
        "details": "Overload {grantRole} to track enumerable memberships"
      },
      "hasRole(bytes32,address)": {
        "details": "Returns `true` if `account` has been granted `role`."
      },
      "increaseAllowance(address,uint256)": {
        "details": "Atomically increases the allowance granted to `spender` by the caller. This is an alternative to {approve} that can be used as a mitigation for problems described in {IERC20-approve}. Emits an {Approval} event indicating the updated allowance. Requirements: - `spender` cannot be the zero address."
      },
      "mint(address,uint256)": {
        "details": "Creates `amount` new tokens for `to`. See {ERC20-_mint}. Requirements: - the caller must have the `MINTER_ROLE`."
      },
      "name()": {
        "details": "Returns the name of the token."
      },
      "pause()": {
        "details": "Pauses all token transfers. See {ERC20Pausable} and {Pausable-_pause}. Requirements: - the caller must have the `PAUSER_ROLE`."
      },
      "paused()": {
        "details": "Returns true if the contract is paused, and false otherwise."
      },
      "renounceRole(bytes32,address)": {
        "details": "Overload {renounceRole} to track enumerable memberships"
      },
      "revokeRole(bytes32,address)": {
        "details": "Overload {revokeRole} to track enumerable memberships"
      },
      "setBurnFee(uint16)": {
        "details": "Set burn fee for every transaction"
      },
      "setDevsFee(uint16)": {
        "details": "Set devs fee for every transaction"
      },
      "setHolderFee(uint16)": {
        "details": "Set holder fee for every transaction"
      },
      "setTransactionFee(uint16)": {
        "details": "Set transaction fee to pay for every transaction"
      },
      "supportsInterface(bytes4)": {
        "details": "See {IERC165-supportsInterface}."
      },
      "symbol()": {
        "details": "Returns the symbol of the token, usually a shorter version of the name."
      },
      "totalSupply()": {
        "details": "See {IERC20-totalSupply}."
      },
      "transfer(address,uint256)": {
        "details": "See {IERC20-transfer}. Requirements: - `recipient` cannot be the zero address. - the caller must have a balance of at least `amount`."
      },
      "transferFrom(address,address,uint256)": {
        "details": "See {IERC20-transferFrom}. Emits an {Approval} event indicating the updated allowance. This is not required by the EIP. See the note at the beginning of {ERC20}. Requirements: - `sender` and `recipient` cannot be the zero address. - `sender` must have a balance of at least `amount`. - the caller must have allowance for ``sender``'s tokens of at least `amount`."
      },
      "unpause()": {
        "details": "Unpauses all token transfers. See {ERC20Pausable} and {Pausable-_unpause}. Requirements: - the caller must have the `PAUSER_ROLE`."
      }
    },
    "version": 1
  },
  "userdoc": {
    "kind": "user",
    "methods": {},
    "version": 1
  }
}